{
  "_format": "hh-sol-artifact-1",
  "contractName": "IoTUpdate",
  "sourceName": "contracts/IoTUpdate.sol",
  "abi": [
    {
      "inputs": [
        {
          "internalType": "uint256",
          "name": "_numBlocksUpdateOpen",
          "type": "uint256"
        }
      ],
      "stateMutability": "nonpayable",
      "type": "constructor"
    },
    {
      "inputs": [],
      "name": "baseReward",
      "outputs": [
        {
          "internalType": "uint256",
          "name": "",
          "type": "uint256"
        }
      ],
      "stateMutability": "view",
      "type": "function"
    },
    {
      "inputs": [],
      "name": "distributor",
      "outputs": [
        {
          "internalType": "address",
          "name": "",
          "type": "address"
        }
      ],
      "stateMutability": "view",
      "type": "function"
    },
    {
      "inputs": [],
      "name": "getAddress",
      "outputs": [
        {
          "internalType": "address",
          "name": "",
          "type": "address"
        }
      ],
      "stateMutability": "view",
      "type": "function"
    },
    {
      "inputs": [],
      "name": "getBaseReward",
      "outputs": [
        {
          "internalType": "uint256",
          "name": "",
          "type": "uint256"
        }
      ],
      "stateMutability": "pure",
      "type": "function"
    },
    {
      "inputs": [],
      "name": "getDistributorAddress",
      "outputs": [
        {
          "internalType": "address",
          "name": "",
          "type": "address"
        }
      ],
      "stateMutability": "view",
      "type": "function"
    },
    {
      "inputs": [],
      "name": "getIoTDeviceAddress",
      "outputs": [
        {
          "internalType": "address",
          "name": "",
          "type": "address"
        }
      ],
      "stateMutability": "view",
      "type": "function"
    },
    {
      "inputs": [],
      "name": "getManufacturerAddress",
      "outputs": [
        {
          "internalType": "address",
          "name": "",
          "type": "address"
        }
      ],
      "stateMutability": "view",
      "type": "function"
    },
    {
      "inputs": [],
      "name": "getNumBlocksUpdateOpen",
      "outputs": [
        {
          "internalType": "uint256",
          "name": "",
          "type": "uint256"
        }
      ],
      "stateMutability": "view",
      "type": "function"
    },
    {
      "inputs": [],
      "name": "iotDevice",
      "outputs": [
        {
          "internalType": "address",
          "name": "",
          "type": "address"
        }
      ],
      "stateMutability": "view",
      "type": "function"
    },
    {
      "inputs": [],
      "name": "isPoDSignatureGenerated",
      "outputs": [
        {
          "internalType": "bool",
          "name": "",
          "type": "bool"
        }
      ],
      "stateMutability": "view",
      "type": "function"
    },
    {
      "inputs": [],
      "name": "isProofApproved",
      "outputs": [
        {
          "internalType": "bool",
          "name": "",
          "type": "bool"
        }
      ],
      "stateMutability": "view",
      "type": "function"
    },
    {
      "inputs": [],
      "name": "isUpdateApplied",
      "outputs": [
        {
          "internalType": "bool",
          "name": "",
          "type": "bool"
        }
      ],
      "stateMutability": "view",
      "type": "function"
    },
    {
      "inputs": [],
      "name": "manufacturer",
      "outputs": [
        {
          "internalType": "address",
          "name": "",
          "type": "address"
        }
      ],
      "stateMutability": "view",
      "type": "function"
    },
    {
      "inputs": [],
      "name": "numBlocksUpdateOpen",
      "outputs": [
        {
          "internalType": "uint256",
          "name": "",
          "type": "uint256"
        }
      ],
      "stateMutability": "view",
      "type": "function"
    },
    {
      "inputs": [
        {
          "internalType": "address",
          "name": "_distributor",
          "type": "address"
        }
      ],
      "name": "setDistributorAddress",
      "outputs": [],
      "stateMutability": "nonpayable",
      "type": "function"
    },
    {
      "inputs": [
        {
          "internalType": "address",
          "name": "_iotDevice",
          "type": "address"
        }
      ],
      "name": "setIoTDeviceAddress",
      "outputs": [],
      "stateMutability": "nonpayable",
      "type": "function"
    },
    {
      "inputs": [],
      "name": "update",
      "outputs": [],
      "stateMutability": "payable",
      "type": "function"
    }
  ],
  "bytecode": "0x60c0604052600a6080908152506001600260146101000a81548160ff0219169083151502179055506001600260156101000a81548160ff0219169083151502179055506001600260166101000a81548160ff0219169083151502179055503480156200006a57600080fd5b50604051620015d1380380620015d1833981810160405281019062000090919062000176565b620000ac67c33d15c2ba2b33db60c01b6200013360201b60201c565b620000c8676f53f5027ec7eb8c60c01b6200013360201b60201c565b8060a08181525050620000ec67403a57e587f812f960c01b6200013360201b60201c565b336000806101000a81548173ffffffffffffffffffffffffffffffffffffffff021916908373ffffffffffffffffffffffffffffffffffffffff16021790555050620001a8565b50565b600080fd5b6000819050919050565b62000150816200013b565b81146200015c57600080fd5b50565b600081519050620001708162000145565b92915050565b6000602082840312156200018f576200018e62000136565b5b60006200019f848285016200015f565b91505092915050565b60805160a0516113f5620001dc6000396000818161082d01528181610aff0152610e810152600061066f01526113f56000f3fe6080604052600436106100fe5760003560e01c806387950f4911610095578063baf0b56211610064578063baf0b562146102e2578063bd03adf01461030d578063bfe1092814610338578063c6ac98f614610363578063e6975f3c1461038e576100fe565b806387950f4914610259578063897c31c814610282578063a2e62045146102ad578063b98e652a146102b7576100fe565b806338cc4831116100d157806338cc4831146101af578063413c658d146101da578063747542821461020357806376ad03bc1461022e576100fe565b806312c03962146101035780631fbcea451461012e5780632067abf61461015957806326c6fc1114610184575b600080fd5b34801561010f57600080fd5b506101186103b9565b6040516101259190610ed6565b60405180910390f35b34801561013a57600080fd5b506101436103cc565b6040516101509190610f32565b60405180910390f35b34801561016557600080fd5b5061016e610432565b60405161017b9190610ed6565b60405180910390f35b34801561019057600080fd5b50610199610445565b6040516101a69190610f32565b60405180910390f35b3480156101bb57600080fd5b506101c461046b565b6040516101d19190610f32565b60405180910390f35b3480156101e657600080fd5b5061020160048036038101906101fc9190610f7e565b6104af565b005b34801561020f57600080fd5b50610218610649565b6040516102259190610f32565b60405180910390f35b34801561023a57600080fd5b5061024361066d565b6040516102509190610fc4565b60405180910390f35b34801561026557600080fd5b50610280600480360381019061027b9190610f7e565b610691565b005b34801561028e57600080fd5b5061029761082b565b6040516102a49190610fc4565b60405180910390f35b6102b561084f565b005b3480156102c357600080fd5b506102cc610d0c565b6040516102d99190610fc4565b60405180910390f35b3480156102ee57600080fd5b506102f7610d51565b6040516103049190610f32565b60405180910390f35b34801561031957600080fd5b50610322610db7565b60405161032f9190610f32565b60405180910390f35b34801561034457600080fd5b5061034d610e1b565b60405161035a9190610f32565b60405180910390f35b34801561036f57600080fd5b50610378610e41565b6040516103859190610fc4565b60405180910390f35b34801561039a57600080fd5b506103a3610ea5565b6040516103b09190610ed6565b60405180910390f35b600260149054906101000a900460ff1681565b60006103e2677e7f94b6823b7c6860c01b610eb8565b6103f6671b7b7f8c63945ef760c01b610eb8565b61040a67fc3d778fdb41313860c01b610eb8565b600260009054906101000a900473ffffffffffffffffffffffffffffffffffffffff16905090565b600260159054906101000a900460ff1681565b600260009054906101000a900473ffffffffffffffffffffffffffffffffffffffff1681565b6000610481670a50ae66a4330e0860c01b610eb8565b61049567d08ab0cc00a153e960c01b610eb8565b6104a96738c4da5ccb9902c060c01b610eb8565b30905090565b6104c367c2603f0548bd670d60c01b610eb8565b6104d76708086cb7bbb7a04560c01b610eb8565b6104eb67b9b6e3b7b34ffcb260c01b610eb8565b6104ff672a2710ecbbfff42f60c01b610eb8565b610513676c63e8271e153eee60c01b610eb8565b60008054906101000a900473ffffffffffffffffffffffffffffffffffffffff1673ffffffffffffffffffffffffffffffffffffffff163373ffffffffffffffffffffffffffffffffffffffff16146105a1576040517f08c379a00000000000000000000000000000000000000000000000000000000081526004016105989061103c565b60405180910390fd5b6105b567892993202068a98360c01b610eb8565b6105c96790cb203b08a44c6760c01b610eb8565b6105dd67b9c3cf845093191260c01b610eb8565b6105f167ead5ca7c4279f78860c01b610eb8565b61060567c6b4d5f3d2beedd060c01b610eb8565b80600260006101000a81548173ffffffffffffffffffffffffffffffffffffffff021916908373ffffffffffffffffffffffffffffffffffffffff16021790555050565b60008054906101000a900473ffffffffffffffffffffffffffffffffffffffff1681565b7f000000000000000000000000000000000000000000000000000000000000000081565b6106a567123cd0fbabe73d9960c01b610eb8565b6106b96708086cb7bbb7a04560c01b610eb8565b6106cd67b9b6e3b7b34ffcb260c01b610eb8565b6106e1672a2710ecbbfff42f60c01b610eb8565b6106f5676c63e8271e153eee60c01b610eb8565b60008054906101000a900473ffffffffffffffffffffffffffffffffffffffff1673ffffffffffffffffffffffffffffffffffffffff163373ffffffffffffffffffffffffffffffffffffffff1614610783576040517f08c379a000000000000000000000000000000000000000000000000000000000815260040161077a9061103c565b60405180910390fd5b61079767892993202068a98360c01b610eb8565b6107ab6790cb203b08a44c6760c01b610eb8565b6107bf677918122b5a7e16f460c01b610eb8565b6107d367422d50337b85203160c01b610eb8565b6107e7672db5d3483e5a384c60c01b610eb8565b80600160006101000a81548173ffffffffffffffffffffffffffffffffffffffff021916908373ffffffffffffffffffffffffffffffffffffffff16021790555050565b7f000000000000000000000000000000000000000000000000000000000000000081565b61086367e0dc3fad392956d960c01b610eb8565b61087767d8f53708257b89fc60c01b610eb8565b61088b671e6703718d7f059f60c01b610eb8565b61089f672eb8570f66ce7e9160c01b610eb8565b600260169054906101000a900460ff166108ee576040517f08c379a00000000000000000000000000000000000000000000000000000000081526004016108e5906110ce565b60405180910390fd5b6109026707432fe37ecb92fc60c01b610eb8565b61091667415b41f2b4c82fc160c01b610eb8565b61092a679ac04db0d92af07560c01b610eb8565b61093e67c3c82b630f6e11a260c01b610eb8565b600273ffffffffffffffffffffffffffffffffffffffff16600260009054906101000a900473ffffffffffffffffffffffffffffffffffffffff1673ffffffffffffffffffffffffffffffffffffffff16146109cf576040517f08c379a00000000000000000000000000000000000000000000000000000000081526004016109c690611160565b60405180910390fd5b6109e3670f951e7caa9f04f260c01b610eb8565b6109f7675aad241cdde1c49c60c01b610eb8565b610a0b6726867af16e5a30f560c01b610eb8565b610a1f67dd804afa11d954ef60c01b610eb8565b60008054906101000a900473ffffffffffffffffffffffffffffffffffffffff1673ffffffffffffffffffffffffffffffffffffffff163373ffffffffffffffffffffffffffffffffffffffff1603610aad576040517f08c379a0000000000000000000000000000000000000000000000000000000008152600401610aa4906111f2565b60405180910390fd5b610ac16758e8896e4155c12860c01b610eb8565b610ad5672bb31c8fa96987fa60c01b610eb8565b610ae9673505b1ec44e8e7cf60c01b610eb8565b610afd67864f802d330eff1a60c01b610eb8565b7f00000000000000000000000000000000000000000000000000000000000000004343610b2a9190611241565b1115610b6b576040517f08c379a0000000000000000000000000000000000000000000000000000000008152600401610b629061130d565b60405180910390fd5b610b7f672cdce7c3d5dcbb8e60c01b610eb8565b610b9367cf660a6767a004ec60c01b610eb8565b610ba7674f63d3b71f55aa4360c01b610eb8565b610bbb67286c92026f70689460c01b610eb8565b60008060009054906101000a900473ffffffffffffffffffffffffffffffffffffffff1673ffffffffffffffffffffffffffffffffffffffff163111610c36576040517f08c379a0000000000000000000000000000000000000000000000000000000008152600401610c2d9061139f565b60405180910390fd5b610c4a670725839ccdc983e760c01b610eb8565b610c5e67f32dd3dfc910c14660c01b610eb8565b610c726702e38b7a2ac632dd60c01b610eb8565b600160009054906101000a900473ffffffffffffffffffffffffffffffffffffffff1673ffffffffffffffffffffffffffffffffffffffff166108fc349081150290604051600060405180830381858888f19350505050158015610cda573d6000803e3d6000fd5b50610cef67c33447739ca6fc4d60c01b610eb8565b6000600260166101000a81548160ff021916908315150217905550565b6000610d2267b005765a662b4ccf60c01b610eb8565b610d3667ec95a91b808b72a560c01b610eb8565b610d4a675b1c1963da14d88360c01b610eb8565b600a905090565b6000610d6767ad01a601b1087aef60c01b610eb8565b610d7b6748167f3eef3e879260c01b610eb8565b610d8f67b47f8d3b68ae505a60c01b610eb8565b600160009054906101000a900473ffffffffffffffffffffffffffffffffffffffff16905090565b6000610dcd67ccd108b0e4d969c960c01b610eb8565b610de167abf5448c0fd703cc60c01b610eb8565b610df567d8e634d048103c7960c01b610eb8565b60008054906101000a900473ffffffffffffffffffffffffffffffffffffffff16905090565b600160009054906101000a900473ffffffffffffffffffffffffffffffffffffffff1681565b6000610e576793f1b319d8e610a660c01b610eb8565b610e6b6759f316e7ab0e1c3960c01b610eb8565b610e7f671409422dac95581960c01b610eb8565b7f0000000000000000000000000000000000000000000000000000000000000000905090565b600260169054906101000a900460ff1681565b50565b60008115159050919050565b610ed081610ebb565b82525050565b6000602082019050610eeb6000830184610ec7565b92915050565b600073ffffffffffffffffffffffffffffffffffffffff82169050919050565b6000610f1c82610ef1565b9050919050565b610f2c81610f11565b82525050565b6000602082019050610f476000830184610f23565b92915050565b600080fd5b610f5b81610f11565b8114610f6657600080fd5b50565b600081359050610f7881610f52565b92915050565b600060208284031215610f9457610f93610f4d565b5b6000610fa284828501610f69565b91505092915050565b6000819050919050565b610fbe81610fab565b82525050565b6000602082019050610fd96000830184610fb5565b92915050565b600082825260208201905092915050565b7f4f776e61626c653a2063616c6c6572206973206e6f7420746865206f776e6572600082015250565b6000611026602083610fdf565b915061103182610ff0565b602082019050919050565b6000602082019050818103600083015261105581611019565b9050919050565b7f4465766963652069732063757272656e746c7920757020746f2064617465207760008201527f69746820746865206c6174657374206669726d77617265210000000000000000602082015250565b60006110b8603883610fdf565b91506110c38261105c565b604082019050919050565b600060208201905081810360008301526110e7816110ab565b9050919050565b7f496f54206465766963652061646472657373206d75737420626520736574206260008201527f65666f7265207570646174650000000000000000000000000000000000000000602082015250565b600061114a602c83610fdf565b9150611155826110ee565b604082019050919050565b600060208201905081810360008301526111798161113d565b9050919050565b7f4d616e7566616374757265722063616e6e6f742073656e64207570646174652060008201527f746f207468656d73656c76657300000000000000000000000000000000000000602082015250565b60006111dc602d83610fdf565b91506111e782611180565b604082019050919050565b6000602082019050818103600083015261120b816111cf565b9050919050565b7f4e487b7100000000000000000000000000000000000000000000000000000000600052601160045260246000fd5b600061124c82610fab565b915061125783610fab565b925082820390508181111561126f5761126e611212565b5b92915050565b7f4d617820626c6f636b206e756d626572206578636565646564202d205570646160008201527f74652077696e646f772068617320636c6f7365642d20506c656173652074727960208201527f20616761696e0000000000000000000000000000000000000000000000000000604082015250565b60006112f7604683610fdf565b915061130282611275565b606082019050919050565b60006020820190508181036000830152611326816112ea565b9050919050565b7f596f7572206163636f756e742062616c616e6365206973206e6f74206772656160008201527f746572207468616e203000000000000000000000000000000000000000000000602082015250565b6000611389602a83610fdf565b91506113948261132d565b604082019050919050565b600060208201905081810360008301526113b88161137c565b905091905056fea2646970667358221220c08d5ff7ef26be8785d5bffd218ecd7ae7d42f8e92f1fc692c47e094c3d1851564736f6c63430008140033",
  "linkReferences": {},
  "deployedLinkReferences": {}
}