{
  "_format": "hh-sol-artifact-1",
  "contractName": "MintEncryptionKeyNFT",
  "sourceName": "contracts/MintEncryptionKeyNFT.sol",
  "abi": [
    {
      "inputs": [
        {
          "internalType": "uint256",
          "name": "_maxSupply",
          "type": "uint256"
        }
      ],
      "stateMutability": "nonpayable",
      "type": "constructor"
    },
    {
      "inputs": [],
      "name": "ERC721EnumerableForbiddenBatchMint",
      "type": "error"
    },
    {
      "inputs": [
        {
          "internalType": "address",
          "name": "sender",
          "type": "address"
        },
        {
          "internalType": "uint256",
          "name": "tokenId",
          "type": "uint256"
        },
        {
          "internalType": "address",
          "name": "owner",
          "type": "address"
        }
      ],
      "name": "ERC721IncorrectOwner",
      "type": "error"
    },
    {
      "inputs": [
        {
          "internalType": "address",
          "name": "operator",
          "type": "address"
        },
        {
          "internalType": "uint256",
          "name": "tokenId",
          "type": "uint256"
        }
      ],
      "name": "ERC721InsufficientApproval",
      "type": "error"
    },
    {
      "inputs": [
        {
          "internalType": "address",
          "name": "approver",
          "type": "address"
        }
      ],
      "name": "ERC721InvalidApprover",
      "type": "error"
    },
    {
      "inputs": [
        {
          "internalType": "address",
          "name": "operator",
          "type": "address"
        }
      ],
      "name": "ERC721InvalidOperator",
      "type": "error"
    },
    {
      "inputs": [
        {
          "internalType": "address",
          "name": "owner",
          "type": "address"
        }
      ],
      "name": "ERC721InvalidOwner",
      "type": "error"
    },
    {
      "inputs": [
        {
          "internalType": "address",
          "name": "receiver",
          "type": "address"
        }
      ],
      "name": "ERC721InvalidReceiver",
      "type": "error"
    },
    {
      "inputs": [
        {
          "internalType": "address",
          "name": "sender",
          "type": "address"
        }
      ],
      "name": "ERC721InvalidSender",
      "type": "error"
    },
    {
      "inputs": [
        {
          "internalType": "uint256",
          "name": "tokenId",
          "type": "uint256"
        }
      ],
      "name": "ERC721NonexistentToken",
      "type": "error"
    },
    {
      "inputs": [
        {
          "internalType": "address",
          "name": "owner",
          "type": "address"
        },
        {
          "internalType": "uint256",
          "name": "index",
          "type": "uint256"
        }
      ],
      "name": "ERC721OutOfBoundsIndex",
      "type": "error"
    },
    {
      "inputs": [],
      "name": "InvalidInitialization",
      "type": "error"
    },
    {
      "inputs": [],
      "name": "NotInitializing",
      "type": "error"
    },
    {
      "inputs": [
        {
          "internalType": "address",
          "name": "owner",
          "type": "address"
        }
      ],
      "name": "OwnableInvalidOwner",
      "type": "error"
    },
    {
      "inputs": [
        {
          "internalType": "address",
          "name": "account",
          "type": "address"
        }
      ],
      "name": "OwnableUnauthorizedAccount",
      "type": "error"
    },
    {
      "anonymous": false,
      "inputs": [
        {
          "indexed": true,
          "internalType": "address",
          "name": "owner",
          "type": "address"
        },
        {
          "indexed": true,
          "internalType": "address",
          "name": "approved",
          "type": "address"
        },
        {
          "indexed": true,
          "internalType": "uint256",
          "name": "tokenId",
          "type": "uint256"
        }
      ],
      "name": "Approval",
      "type": "event"
    },
    {
      "anonymous": false,
      "inputs": [
        {
          "indexed": true,
          "internalType": "address",
          "name": "owner",
          "type": "address"
        },
        {
          "indexed": true,
          "internalType": "address",
          "name": "operator",
          "type": "address"
        },
        {
          "indexed": false,
          "internalType": "bool",
          "name": "approved",
          "type": "bool"
        }
      ],
      "name": "ApprovalForAll",
      "type": "event"
    },
    {
      "anonymous": false,
      "inputs": [
        {
          "indexed": false,
          "internalType": "uint64",
          "name": "version",
          "type": "uint64"
        }
      ],
      "name": "Initialized",
      "type": "event"
    },
    {
      "anonymous": false,
      "inputs": [
        {
          "indexed": true,
          "internalType": "address",
          "name": "previousOwner",
          "type": "address"
        },
        {
          "indexed": true,
          "internalType": "address",
          "name": "newOwner",
          "type": "address"
        }
      ],
      "name": "OwnershipTransferred",
      "type": "event"
    },
    {
      "anonymous": false,
      "inputs": [
        {
          "indexed": true,
          "internalType": "address",
          "name": "from",
          "type": "address"
        },
        {
          "indexed": true,
          "internalType": "address",
          "name": "to",
          "type": "address"
        },
        {
          "indexed": true,
          "internalType": "uint256",
          "name": "tokenId",
          "type": "uint256"
        }
      ],
      "name": "Transfer",
      "type": "event"
    },
    {
      "inputs": [
        {
          "internalType": "address",
          "name": "to",
          "type": "address"
        },
        {
          "internalType": "uint256",
          "name": "tokenId",
          "type": "uint256"
        }
      ],
      "name": "approve",
      "outputs": [],
      "stateMutability": "nonpayable",
      "type": "function"
    },
    {
      "inputs": [
        {
          "internalType": "address",
          "name": "owner",
          "type": "address"
        }
      ],
      "name": "balanceOf",
      "outputs": [
        {
          "internalType": "uint256",
          "name": "",
          "type": "uint256"
        }
      ],
      "stateMutability": "view",
      "type": "function"
    },
    {
      "inputs": [
        {
          "internalType": "uint256",
          "name": "tokenId",
          "type": "uint256"
        }
      ],
      "name": "getApproved",
      "outputs": [
        {
          "internalType": "address",
          "name": "",
          "type": "address"
        }
      ],
      "stateMutability": "view",
      "type": "function"
    },
    {
      "inputs": [
        {
          "internalType": "address",
          "name": "initialOwner",
          "type": "address"
        }
      ],
      "name": "initialize",
      "outputs": [],
      "stateMutability": "nonpayable",
      "type": "function"
    },
    {
      "inputs": [
        {
          "internalType": "address",
          "name": "owner",
          "type": "address"
        },
        {
          "internalType": "address",
          "name": "operator",
          "type": "address"
        }
      ],
      "name": "isApprovedForAll",
      "outputs": [
        {
          "internalType": "bool",
          "name": "",
          "type": "bool"
        }
      ],
      "stateMutability": "view",
      "type": "function"
    },
    {
      "inputs": [],
      "name": "maxSupply",
      "outputs": [
        {
          "internalType": "uint256",
          "name": "",
          "type": "uint256"
        }
      ],
      "stateMutability": "view",
      "type": "function"
    },
    {
      "inputs": [],
      "name": "name",
      "outputs": [
        {
          "internalType": "string",
          "name": "",
          "type": "string"
        }
      ],
      "stateMutability": "view",
      "type": "function"
    },
    {
      "inputs": [],
      "name": "owner",
      "outputs": [
        {
          "internalType": "address",
          "name": "",
          "type": "address"
        }
      ],
      "stateMutability": "view",
      "type": "function"
    },
    {
      "inputs": [
        {
          "internalType": "uint256",
          "name": "tokenId",
          "type": "uint256"
        }
      ],
      "name": "ownerOf",
      "outputs": [
        {
          "internalType": "address",
          "name": "",
          "type": "address"
        }
      ],
      "stateMutability": "view",
      "type": "function"
    },
    {
      "inputs": [],
      "name": "renounceOwnership",
      "outputs": [],
      "stateMutability": "nonpayable",
      "type": "function"
    },
    {
      "inputs": [
        {
          "internalType": "address",
          "name": "to",
          "type": "address"
        }
      ],
      "name": "safeMint",
      "outputs": [],
      "stateMutability": "nonpayable",
      "type": "function"
    },
    {
      "inputs": [
        {
          "internalType": "address",
          "name": "from",
          "type": "address"
        },
        {
          "internalType": "address",
          "name": "to",
          "type": "address"
        },
        {
          "internalType": "uint256",
          "name": "tokenId",
          "type": "uint256"
        }
      ],
      "name": "safeTransferFrom",
      "outputs": [],
      "stateMutability": "nonpayable",
      "type": "function"
    },
    {
      "inputs": [
        {
          "internalType": "address",
          "name": "from",
          "type": "address"
        },
        {
          "internalType": "address",
          "name": "to",
          "type": "address"
        },
        {
          "internalType": "uint256",
          "name": "tokenId",
          "type": "uint256"
        },
        {
          "internalType": "bytes",
          "name": "data",
          "type": "bytes"
        }
      ],
      "name": "safeTransferFrom",
      "outputs": [],
      "stateMutability": "nonpayable",
      "type": "function"
    },
    {
      "inputs": [
        {
          "internalType": "address",
          "name": "operator",
          "type": "address"
        },
        {
          "internalType": "bool",
          "name": "approved",
          "type": "bool"
        }
      ],
      "name": "setApprovalForAll",
      "outputs": [],
      "stateMutability": "nonpayable",
      "type": "function"
    },
    {
      "inputs": [
        {
          "internalType": "bytes4",
          "name": "interfaceId",
          "type": "bytes4"
        }
      ],
      "name": "supportsInterface",
      "outputs": [
        {
          "internalType": "bool",
          "name": "",
          "type": "bool"
        }
      ],
      "stateMutability": "view",
      "type": "function"
    },
    {
      "inputs": [],
      "name": "symbol",
      "outputs": [
        {
          "internalType": "string",
          "name": "",
          "type": "string"
        }
      ],
      "stateMutability": "view",
      "type": "function"
    },
    {
      "inputs": [
        {
          "internalType": "uint256",
          "name": "index",
          "type": "uint256"
        }
      ],
      "name": "tokenByIndex",
      "outputs": [
        {
          "internalType": "uint256",
          "name": "",
          "type": "uint256"
        }
      ],
      "stateMutability": "view",
      "type": "function"
    },
    {
      "inputs": [
        {
          "internalType": "address",
          "name": "owner",
          "type": "address"
        },
        {
          "internalType": "uint256",
          "name": "index",
          "type": "uint256"
        }
      ],
      "name": "tokenOfOwnerByIndex",
      "outputs": [
        {
          "internalType": "uint256",
          "name": "",
          "type": "uint256"
        }
      ],
      "stateMutability": "view",
      "type": "function"
    },
    {
      "inputs": [
        {
          "internalType": "uint256",
          "name": "tokenId",
          "type": "uint256"
        }
      ],
      "name": "tokenURI",
      "outputs": [
        {
          "internalType": "string",
          "name": "",
          "type": "string"
        }
      ],
      "stateMutability": "view",
      "type": "function"
    },
    {
      "inputs": [],
      "name": "totalSupply",
      "outputs": [
        {
          "internalType": "uint256",
          "name": "",
          "type": "uint256"
        }
      ],
      "stateMutability": "view",
      "type": "function"
    },
    {
      "inputs": [
        {
          "internalType": "address",
          "name": "from",
          "type": "address"
        },
        {
          "internalType": "address",
          "name": "to",
          "type": "address"
        },
        {
          "internalType": "uint256",
          "name": "tokenId",
          "type": "uint256"
        }
      ],
      "name": "transferFrom",
      "outputs": [],
      "stateMutability": "nonpayable",
      "type": "function"
    },
    {
      "inputs": [
        {
          "internalType": "address",
          "name": "newOwner",
          "type": "address"
        }
      ],
      "name": "transferOwnership",
      "outputs": [],
      "stateMutability": "nonpayable",
      "type": "function"
    }
  ],
  "bytecode": "0x60806040523480156200001157600080fd5b50604051620036fe380380620036fe833981810160405281019062000037919062000230565b62000053675dc654f17f63e63860c01b620001ed60201b60201c565b6200006f67a3e76f86b6d0c37a60c01b620001ed60201b60201c565b806001819055506200009267494089b3ab21e11b60c01b620001ed60201b60201c565b620000ae67791e900ac436fe9d60c01b620001ed60201b60201c565b620000ca67fd9b54e2a12cc5e860c01b620001ed60201b60201c565b60018054101562000112576040517f08c379a00000000000000000000000000000000000000000000000000000000081526004016200010990620002e9565b60405180910390fd5b6200012e6775c4d8a20bfe04a060c01b620001ed60201b60201c565b6200014a6719f3b0b53f5fd7a960c01b620001ed60201b60201c565b620001666723614053bba0d90860c01b620001ed60201b60201c565b6200018267a881c35e6672ad5a60c01b620001ed60201b60201c565b600260015410620001ca576040517f08c379a0000000000000000000000000000000000000000000000000000000008152600401620001c19062000381565b60405180910390fd5b620001e66762f83ed6d5ce38b560c01b620001ed60201b60201c565b50620003a3565b50565b600080fd5b6000819050919050565b6200020a81620001f5565b81146200021657600080fd5b50565b6000815190506200022a81620001ff565b92915050565b600060208284031215620002495762000248620001f0565b5b6000620002598482850162000219565b91505092915050565b600082825260208201905092915050565b7f4d617820456e6372797074696f6e204b6579204e465473206d7573742062652060008201527f67726561746572207468616e2030000000000000000000000000000000000000602082015250565b6000620002d1602e8362000262565b9150620002de8262000273565b604082019050919050565b600060208201905081810360008301526200030481620002c2565b9050919050565b7f4d617820456e6372797074696f6e204b6579204e465473206d7573742062652060008201527f657175616c20746f203100000000000000000000000000000000000000000000602082015250565b600062000369602a8362000262565b915062000376826200030b565b604082019050919050565b600060208201905081810360008301526200039c816200035a565b9050919050565b61334b80620003b36000396000f3fe608060405234801561001057600080fd5b50600436106101425760003560e01c806370a08231116100b8578063b88d4fde1161007c578063b88d4fde14610375578063c4d66de814610391578063c87b56dd146103ad578063d5abeb01146103dd578063e985e9c5146103fb578063f2fde38b1461042b57610142565b806370a08231146102e3578063715018a6146103135780638da5cb5b1461031d57806395d89b411461033b578063a22cb4651461035957610142565b806323b872dd1161010a57806323b872dd146101ff5780632f745c591461021b57806340d097c31461024b57806342842e0e146102675780634f6ccce7146102835780636352211e146102b357610142565b806301ffc9a71461014757806306fdde0314610177578063081812fc14610195578063095ea7b3146101c557806318160ddd146101e1575b600080fd5b610161600480360381019061015c9190612712565b610447565b60405161016e919061275a565b60405180910390f35b61017f610495565b60405161018c9190612805565b60405180910390f35b6101af60048036038101906101aa919061285d565b610536565b6040516101bc91906128cb565b60405180910390f35b6101df60048036038101906101da9190612912565b610552565b005b6101e9610568565b6040516101f69190612961565b60405180910390f35b6102196004803603810190610214919061297c565b610583565b005b61023560048036038101906102309190612912565b610685565b6040516102429190612961565b60405180910390f35b610265600480360381019061026091906129cf565b61073c565b005b610281600480360381019061027c919061297c565b610868565b005b61029d6004803603810190610298919061285d565b610888565b6040516102aa9190612961565b60405180910390f35b6102cd60048036038101906102c8919061285d565b61090c565b6040516102da91906128cb565b60405180910390f35b6102fd60048036038101906102f891906129cf565b61091e565b60405161030a9190612961565b60405180910390f35b61031b6109e7565b005b6103256109fb565b60405161033291906128cb565b60405180910390f35b610343610a33565b6040516103509190612805565b60405180910390f35b610373600480360381019061036e9190612a28565b610ad4565b005b61038f600480360381019061038a9190612b9d565b610aea565b005b6103ab60048036038101906103a691906129cf565b610b07565b005b6103c760048036038101906103c2919061285d565b610dc6565b6040516103d49190612805565b60405180910390f35b6103e5610e2f565b6040516103f29190612961565b60405180910390f35b61041560048036038101906104109190612c20565b610e35565b604051610422919061275a565b60405180910390f35b610445600480360381019061044091906129cf565b610ed7565b005b600061045d670fa09cdaf0e6471860c01b610f5d565b6104716737756ff6bc8ddf1d60c01b610f5d565b610485673893a88d14c8134f60c01b610f5d565b61048e82610f60565b9050919050565b606060006104a1610fda565b90508060000180546104b290612c8f565b80601f01602080910402602001604051908101604052809291908181526020018280546104de90612c8f565b801561052b5780601f106105005761010080835404028352916020019161052b565b820191906000526020600020905b81548152906001019060200180831161050e57829003601f168201915b505050505091505090565b600061054182611002565b5061054b8261108a565b9050919050565b610564828261055f6110d5565b6110dd565b5050565b6000806105736110ef565b9050806002018054905091505090565b600073ffffffffffffffffffffffffffffffffffffffff168273ffffffffffffffffffffffffffffffffffffffff16036105f55760006040517f64a0ae920000000000000000000000000000000000000000000000000000000081526004016105ec91906128cb565b60405180910390fd5b600061060983836106046110d5565b611117565b90508373ffffffffffffffffffffffffffffffffffffffff168173ffffffffffffffffffffffffffffffffffffffff161461067f578382826040517f64283d7b00000000000000000000000000000000000000000000000000000000815260040161067693929190612cc0565b60405180910390fd5b50505050565b6000806106906110ef565b905061069b8461091e565b83106106e05783836040517fa57d13dc0000000000000000000000000000000000000000000000000000000081526004016106d7929190612cf7565b60405180910390fd5b8060000160008573ffffffffffffffffffffffffffffffffffffffff1673ffffffffffffffffffffffffffffffffffffffff16815260200190815260200160002060008481526020019081526020016000205491505092915050565b61075067c9ea3fb4407adb3660c01b610f5d565b610764673c01e9f441f61c8460c01b610f5d565b61077867e38211902fd64f0360c01b610f5d565b600080600081548092919061078c90612d4f565b9190505590506107a667e3ab9fcfc872663260c01b610f5d565b6107ba67720230cec1d30f0060c01b610f5d565b6107ce6761463518d3bd18c160c01b610f5d565b600180546107dc9190612d97565b81111561081e576040517f08c379a000000000000000000000000000000000000000000000000000000000815260040161081590612e3d565b60405180910390fd5b61083267fefbfe99d9a4f87260c01b610f5d565b610846679d56e19ca88fc7de60c01b610f5d565b61085a67425450d5b9f1aed860c01b610f5d565b6108648282611169565b5050565b61088383838360405180602001604052806000815250610aea565b505050565b6000806108936110ef565b905061089d610568565b83106108e3576000836040517fa57d13dc0000000000000000000000000000000000000000000000000000000081526004016108da929190612cf7565b60405180910390fd5b8060020183815481106108f9576108f8612e5d565b5b9060005260206000200154915050919050565b600061091782611002565b9050919050565b600080610929610fda565b9050600073ffffffffffffffffffffffffffffffffffffffff168373ffffffffffffffffffffffffffffffffffffffff160361099d5760006040517f89c62b6400000000000000000000000000000000000000000000000000000000815260040161099491906128cb565b60405180910390fd5b8060030160008473ffffffffffffffffffffffffffffffffffffffff1673ffffffffffffffffffffffffffffffffffffffff16815260200190815260200160002054915050919050565b6109ef611187565b6109f9600061120e565b565b600080610a066112e5565b90508060000160009054906101000a900473ffffffffffffffffffffffffffffffffffffffff1691505090565b60606000610a3f610fda565b9050806001018054610a5090612c8f565b80601f0160208091040260200160405190810160405280929190818152602001828054610a7c90612c8f565b8015610ac95780601f10610a9e57610100808354040283529160200191610ac9565b820191906000526020600020905b815481529060010190602001808311610aac57829003601f168201915b505050505091505090565b610ae6610adf6110d5565b838361130d565b5050565b610af5848484610583565b610b018484848461148b565b50505050565b610b1b67696a2cacdc95685e60c01b610f5d565b6000610b25611642565b905060008160000160089054906101000a900460ff1615905060008260000160009054906101000a900467ffffffffffffffff1690506000808267ffffffffffffffff16148015610b735750825b9050600060018367ffffffffffffffff16148015610ba8575060003073ffffffffffffffffffffffffffffffffffffffff163b145b905081158015610bb6575080155b15610bed576040517ff92ee8a900000000000000000000000000000000000000000000000000000000815260040160405180910390fd5b60018560000160006101000a81548167ffffffffffffffff021916908367ffffffffffffffff1602179055508315610c3d5760018560000160086101000a81548160ff0219169083151502179055505b610c5167c955fd3bf6bcd9ca60c01b610f5d565b610c65674798267f47cd312460c01b610f5d565b610c7967b8656548a620bbf160c01b610f5d565b610c8d677c496e2b2678b9ae60c01b610f5d565b610d016040518060400160405280600e81526020017f456e6372797074696f6e204b65790000000000000000000000000000000000008152506040518060400160405280600281526020017f454b00000000000000000000000000000000000000000000000000000000000081525061166a565b610d156728b13382c4ce980460c01b610f5d565b610d2967c49beefc8c59b6bb60c01b610f5d565b610d31611680565b610d45676ab6b6877442f1ed60c01b610f5d565b610d596711cd31fa2980d0c260c01b610f5d565b610d628661168a565b8315610dbe5760008560000160086101000a81548160ff0219169083151502179055507fc7f505b2f371ae2175ee4913f4499e1f2633a7b5936321eed1cdaeb6115181d26001604051610db59190612ee5565b60405180910390a15b505050505050565b6060610dd182611002565b506000610ddc61169e565b90506000815111610dfc5760405180602001604052806000815250610e27565b80610e06846116b5565b604051602001610e17929190612f3c565b6040516020818303038152906040525b915050919050565b60015481565b600080610e40610fda565b90508060050160008573ffffffffffffffffffffffffffffffffffffffff1673ffffffffffffffffffffffffffffffffffffffff16815260200190815260200160002060008473ffffffffffffffffffffffffffffffffffffffff1673ffffffffffffffffffffffffffffffffffffffff16815260200190815260200160002060009054906101000a900460ff1691505092915050565b610edf611187565b600073ffffffffffffffffffffffffffffffffffffffff168173ffffffffffffffffffffffffffffffffffffffff1603610f515760006040517f1e4fbdf7000000000000000000000000000000000000000000000000000000008152600401610f4891906128cb565b60405180910390fd5b610f5a8161120e565b50565b50565b60007f780e9d63000000000000000000000000000000000000000000000000000000007bffffffffffffffffffffffffffffffffffffffffffffffffffffffff1916827bffffffffffffffffffffffffffffffffffffffffffffffffffffffff19161480610fd35750610fd282611783565b5b9050919050565b60007f80bb2b638cc20bc4d0a60d66940f3ab4a00c1d7b313497ca82fb0b4ab0079300905090565b60008061100e83611865565b9050600073ffffffffffffffffffffffffffffffffffffffff168173ffffffffffffffffffffffffffffffffffffffff160361108157826040517f7e2732890000000000000000000000000000000000000000000000000000000081526004016110789190612961565b60405180910390fd5b80915050919050565b600080611095610fda565b905080600401600084815260200190815260200160002060009054906101000a900473ffffffffffffffffffffffffffffffffffffffff16915050919050565b600033905090565b6110ea83838360016118b0565b505050565b60007f645e039705490088daad89bae25049a34f4a9072d398537b1ab2425f24cbed00905090565b600061112d6751d33045befe7dca60c01b610f5d565b6111416795071112e3c1e93a60c01b610f5d565b611155677d16fd368932168e60c01b610f5d565b611160848484611a84565b90509392505050565b611183828260405180602001604052806000815250611ba1565b5050565b61118f6110d5565b73ffffffffffffffffffffffffffffffffffffffff166111ad6109fb565b73ffffffffffffffffffffffffffffffffffffffff161461120c576111d06110d5565b6040517f118cdaa700000000000000000000000000000000000000000000000000000000815260040161120391906128cb565b60405180910390fd5b565b60006112186112e5565b905060008160000160009054906101000a900473ffffffffffffffffffffffffffffffffffffffff169050828260000160006101000a81548173ffffffffffffffffffffffffffffffffffffffff021916908373ffffffffffffffffffffffffffffffffffffffff1602179055508273ffffffffffffffffffffffffffffffffffffffff168173ffffffffffffffffffffffffffffffffffffffff167f8be0079c531659141344cd1fd0a4f28419497f9722a3daafe3b4186f6b6457e060405160405180910390a3505050565b60007f9016d09d72d40fdae2fd8ceac6b6234c7706214fd39c1cd1e609a0528c199300905090565b6000611317610fda565b9050600073ffffffffffffffffffffffffffffffffffffffff168373ffffffffffffffffffffffffffffffffffffffff160361138a57826040517f5b08ba1800000000000000000000000000000000000000000000000000000000815260040161138191906128cb565b60405180910390fd5b818160050160008673ffffffffffffffffffffffffffffffffffffffff1673ffffffffffffffffffffffffffffffffffffffff16815260200190815260200160002060008573ffffffffffffffffffffffffffffffffffffffff1673ffffffffffffffffffffffffffffffffffffffff16815260200190815260200160002060006101000a81548160ff0219169083151502179055508273ffffffffffffffffffffffffffffffffffffffff168473ffffffffffffffffffffffffffffffffffffffff167f17307eab39ab6107e8899845ad3d59bd9653f200f220920489ca2b5937696c318460405161147d919061275a565b60405180910390a350505050565b60008373ffffffffffffffffffffffffffffffffffffffff163b111561163c578273ffffffffffffffffffffffffffffffffffffffff1663150b7a026114cf6110d5565b8685856040518563ffffffff1660e01b81526004016114f19493929190612fb5565b6020604051808303816000875af192505050801561152d57506040513d601f19601f8201168201806040525081019061152a9190613016565b60015b6115b1573d806000811461155d576040519150601f19603f3d011682016040523d82523d6000602084013e611562565b606091505b5060008151036115a957836040517f64a0ae920000000000000000000000000000000000000000000000000000000081526004016115a091906128cb565b60405180910390fd5b805181602001fd5b63150b7a0260e01b7bffffffffffffffffffffffffffffffffffffffffffffffffffffffff1916817bffffffffffffffffffffffffffffffffffffffffffffffffffffffff19161461163a57836040517f64a0ae9200000000000000000000000000000000000000000000000000000000815260040161163191906128cb565b60405180910390fd5b505b50505050565b60007ff0c57e16840df040f15088dc2f81fe391c3923bec73e23a9662efc9c229c6a00905090565b611672611bbd565b61167c8282611bfd565b5050565b611688611bbd565b565b611692611bbd565b61169b81611c3a565b50565b606060405180602001604052806000815250905090565b6060600060016116c484611cc0565b01905060008167ffffffffffffffff8111156116e3576116e2612a72565b5b6040519080825280601f01601f1916602001820160405280156117155781602001600182028036833780820191505090505b509050600082602001820190505b600115611778578080600190039150507f3031323334353637383961626364656600000000000000000000000000000000600a86061a8153600a858161176c5761176b613043565b5b04945060008503611723575b819350505050919050565b60007f80ac58cd000000000000000000000000000000000000000000000000000000007bffffffffffffffffffffffffffffffffffffffffffffffffffffffff1916827bffffffffffffffffffffffffffffffffffffffffffffffffffffffff1916148061184e57507f5b5e139f000000000000000000000000000000000000000000000000000000007bffffffffffffffffffffffffffffffffffffffffffffffffffffffff1916827bffffffffffffffffffffffffffffffffffffffffffffffffffffffff1916145b8061185e575061185d82611e13565b5b9050919050565b600080611870610fda565b905080600201600084815260200190815260200160002060009054906101000a900473ffffffffffffffffffffffffffffffffffffffff16915050919050565b60006118ba610fda565b905081806118f55750600073ffffffffffffffffffffffffffffffffffffffff168373ffffffffffffffffffffffffffffffffffffffff1614155b15611a2957600061190585611002565b9050600073ffffffffffffffffffffffffffffffffffffffff168473ffffffffffffffffffffffffffffffffffffffff161415801561197057508373ffffffffffffffffffffffffffffffffffffffff168173ffffffffffffffffffffffffffffffffffffffff1614155b801561198357506119818185610e35565b155b156119c557836040517fa9fbf51f0000000000000000000000000000000000000000000000000000000081526004016119bc91906128cb565b60405180910390fd5b8215611a2757848673ffffffffffffffffffffffffffffffffffffffff168273ffffffffffffffffffffffffffffffffffffffff167f8c5be1e5ebec7d5bd14f71427d1e84f3dd0314c0f7b2291e5b200ac8c7c3b92560405160405180910390a45b505b8481600401600086815260200190815260200160002060006101000a81548173ffffffffffffffffffffffffffffffffffffffff021916908373ffffffffffffffffffffffffffffffffffffffff1602179055505050505050565b600080611a92858585611e7d565b9050600073ffffffffffffffffffffffffffffffffffffffff168173ffffffffffffffffffffffffffffffffffffffff1603611ad657611ad1846120aa565b611b15565b8473ffffffffffffffffffffffffffffffffffffffff168173ffffffffffffffffffffffffffffffffffffffff1614611b1457611b138185612106565b5b5b600073ffffffffffffffffffffffffffffffffffffffff168573ffffffffffffffffffffffffffffffffffffffff1603611b5757611b5284612280565b611b96565b8473ffffffffffffffffffffffffffffffffffffffff168173ffffffffffffffffffffffffffffffffffffffff1614611b9557611b94858561236c565b5b5b809150509392505050565b611bab8383612408565b611bb8600084848461148b565b505050565b611bc5612501565b611bfb576040517fd7e6bcf800000000000000000000000000000000000000000000000000000000815260040160405180910390fd5b565b611c05611bbd565b6000611c0f610fda565b905082816000019081611c229190613214565b5081816001019081611c349190613214565b50505050565b611c42611bbd565b600073ffffffffffffffffffffffffffffffffffffffff168173ffffffffffffffffffffffffffffffffffffffff1603611cb45760006040517f1e4fbdf7000000000000000000000000000000000000000000000000000000008152600401611cab91906128cb565b60405180910390fd5b611cbd8161120e565b50565b600080600090507a184f03e93ff9f4daa797ed6e38ed64bf6a1f0100000000000000008310611d1e577a184f03e93ff9f4daa797ed6e38ed64bf6a1f0100000000000000008381611d1457611d13613043565b5b0492506040810190505b6d04ee2d6d415b85acef81000000008310611d5b576d04ee2d6d415b85acef81000000008381611d5157611d50613043565b5b0492506020810190505b662386f26fc100008310611d8a57662386f26fc100008381611d8057611d7f613043565b5b0492506010810190505b6305f5e1008310611db3576305f5e1008381611da957611da8613043565b5b0492506008810190505b6127108310611dd8576127108381611dce57611dcd613043565b5b0492506004810190505b60648310611dfb5760648381611df157611df0613043565b5b0492506002810190505b600a8310611e0a576001810190505b80915050919050565b60007f01ffc9a7000000000000000000000000000000000000000000000000000000007bffffffffffffffffffffffffffffffffffffffffffffffffffffffff1916827bffffffffffffffffffffffffffffffffffffffffffffffffffffffff1916149050919050565b600080611e88610fda565b90506000611e9585611865565b9050600073ffffffffffffffffffffffffffffffffffffffff168473ffffffffffffffffffffffffffffffffffffffff1614611ed757611ed6818587612521565b5b600073ffffffffffffffffffffffffffffffffffffffff168173ffffffffffffffffffffffffffffffffffffffff1614611f6a57611f196000866000806118b0565b60018260030160008373ffffffffffffffffffffffffffffffffffffffff1673ffffffffffffffffffffffffffffffffffffffff168152602001908152602001600020600082825403925050819055505b600073ffffffffffffffffffffffffffffffffffffffff168673ffffffffffffffffffffffffffffffffffffffff1614611fef5760018260030160008873ffffffffffffffffffffffffffffffffffffffff1673ffffffffffffffffffffffffffffffffffffffff168152602001908152602001600020600082825401925050819055505b8582600201600087815260200190815260200160002060006101000a81548173ffffffffffffffffffffffffffffffffffffffff021916908373ffffffffffffffffffffffffffffffffffffffff160217905550848673ffffffffffffffffffffffffffffffffffffffff168273ffffffffffffffffffffffffffffffffffffffff167fddf252ad1be2c89b69c2b068fc378daa952ba7f163c4a11628f55a4df523b3ef60405160405180910390a480925050509392505050565b60006120b46110ef565b9050806002018054905081600301600084815260200190815260200160002081905550806002018290806001815401808255809150506001900390600052602060002001600090919091909150555050565b60006121106110ef565b9050600061211d8461091e565b9050600082600101600085815260200190815260200160002054905081811461220a5760008360000160008773ffffffffffffffffffffffffffffffffffffffff1673ffffffffffffffffffffffffffffffffffffffff1681526020019081526020016000206000848152602001908152602001600020549050808460000160008873ffffffffffffffffffffffffffffffffffffffff1673ffffffffffffffffffffffffffffffffffffffff1681526020019081526020016000206000848152602001908152602001600020819055508184600101600083815260200190815260200160002081905550505b826001016000858152602001908152602001600020600090558260000160008673ffffffffffffffffffffffffffffffffffffffff1673ffffffffffffffffffffffffffffffffffffffff1681526020019081526020016000206000838152602001908152602001600020600090555050505050565b600061228a6110ef565b90506000600182600201805490506122a29190612d97565b9050600082600301600085815260200190815260200160002054905060008360020183815481106122d6576122d5612e5d565b5b90600052602060002001549050808460020183815481106122fa576122f9612e5d565b5b90600052602060002001819055508184600301600083815260200190815260200160002081905550836003016000868152602001908152602001600020600090558360020180548061234f5761234e6132e6565b5b600190038181906000526020600020016000905590555050505050565b60006123766110ef565b9050600060016123858561091e565b61238f9190612d97565b9050828260000160008673ffffffffffffffffffffffffffffffffffffffff1673ffffffffffffffffffffffffffffffffffffffff168152602001908152602001600020600083815260200190815260200160002081905550808260010160008581526020019081526020016000208190555050505050565b600073ffffffffffffffffffffffffffffffffffffffff168273ffffffffffffffffffffffffffffffffffffffff160361247a5760006040517f64a0ae9200000000000000000000000000000000000000000000000000000000815260040161247191906128cb565b60405180910390fd5b600061248883836000611117565b9050600073ffffffffffffffffffffffffffffffffffffffff168173ffffffffffffffffffffffffffffffffffffffff16146124fc5760006040517f73c6ac6e0000000000000000000000000000000000000000000000000000000081526004016124f391906128cb565b60405180910390fd5b505050565b600061250b611642565b60000160089054906101000a900460ff16905090565b61252c8383836125e5565b6125e057600073ffffffffffffffffffffffffffffffffffffffff168373ffffffffffffffffffffffffffffffffffffffff16036125a157806040517f7e2732890000000000000000000000000000000000000000000000000000000081526004016125989190612961565b60405180910390fd5b81816040517f177e802f0000000000000000000000000000000000000000000000000000000081526004016125d7929190612cf7565b60405180910390fd5b505050565b60008073ffffffffffffffffffffffffffffffffffffffff168373ffffffffffffffffffffffffffffffffffffffff161415801561269d57508273ffffffffffffffffffffffffffffffffffffffff168473ffffffffffffffffffffffffffffffffffffffff16148061265e575061265d8484610e35565b5b8061269c57508273ffffffffffffffffffffffffffffffffffffffff166126848361108a565b73ffffffffffffffffffffffffffffffffffffffff16145b5b90509392505050565b6000604051905090565b600080fd5b600080fd5b60007fffffffff0000000000000000000000000000000000000000000000000000000082169050919050565b6126ef816126ba565b81146126fa57600080fd5b50565b60008135905061270c816126e6565b92915050565b600060208284031215612728576127276126b0565b5b6000612736848285016126fd565b91505092915050565b60008115159050919050565b6127548161273f565b82525050565b600060208201905061276f600083018461274b565b92915050565b600081519050919050565b600082825260208201905092915050565b60005b838110156127af578082015181840152602081019050612794565b60008484015250505050565b6000601f19601f8301169050919050565b60006127d782612775565b6127e18185612780565b93506127f1818560208601612791565b6127fa816127bb565b840191505092915050565b6000602082019050818103600083015261281f81846127cc565b905092915050565b6000819050919050565b61283a81612827565b811461284557600080fd5b50565b60008135905061285781612831565b92915050565b600060208284031215612873576128726126b0565b5b600061288184828501612848565b91505092915050565b600073ffffffffffffffffffffffffffffffffffffffff82169050919050565b60006128b58261288a565b9050919050565b6128c5816128aa565b82525050565b60006020820190506128e060008301846128bc565b92915050565b6128ef816128aa565b81146128fa57600080fd5b50565b60008135905061290c816128e6565b92915050565b60008060408385031215612929576129286126b0565b5b6000612937858286016128fd565b925050602061294885828601612848565b9150509250929050565b61295b81612827565b82525050565b60006020820190506129766000830184612952565b92915050565b600080600060608486031215612995576129946126b0565b5b60006129a3868287016128fd565b93505060206129b4868287016128fd565b92505060406129c586828701612848565b9150509250925092565b6000602082840312156129e5576129e46126b0565b5b60006129f3848285016128fd565b91505092915050565b612a058161273f565b8114612a1057600080fd5b50565b600081359050612a22816129fc565b92915050565b60008060408385031215612a3f57612a3e6126b0565b5b6000612a4d858286016128fd565b9250506020612a5e85828601612a13565b9150509250929050565b600080fd5b600080fd5b7f4e487b7100000000000000000000000000000000000000000000000000000000600052604160045260246000fd5b612aaa826127bb565b810181811067ffffffffffffffff82111715612ac957612ac8612a72565b5b80604052505050565b6000612adc6126a6565b9050612ae88282612aa1565b919050565b600067ffffffffffffffff821115612b0857612b07612a72565b5b612b11826127bb565b9050602081019050919050565b82818337600083830152505050565b6000612b40612b3b84612aed565b612ad2565b905082815260208101848484011115612b5c57612b5b612a6d565b5b612b67848285612b1e565b509392505050565b600082601f830112612b8457612b83612a68565b5b8135612b94848260208601612b2d565b91505092915050565b60008060008060808587031215612bb757612bb66126b0565b5b6000612bc5878288016128fd565b9450506020612bd6878288016128fd565b9350506040612be787828801612848565b925050606085013567ffffffffffffffff811115612c0857612c076126b5565b5b612c1487828801612b6f565b91505092959194509250565b60008060408385031215612c3757612c366126b0565b5b6000612c45858286016128fd565b9250506020612c56858286016128fd565b9150509250929050565b7f4e487b7100000000000000000000000000000000000000000000000000000000600052602260045260246000fd5b60006002820490506001821680612ca757607f821691505b602082108103612cba57612cb9612c60565b5b50919050565b6000606082019050612cd560008301866128bc565b612ce26020830185612952565b612cef60408301846128bc565b949350505050565b6000604082019050612d0c60008301856128bc565b612d196020830184612952565b9392505050565b7f4e487b7100000000000000000000000000000000000000000000000000000000600052601160045260246000fd5b6000612d5a82612827565b91507fffffffffffffffffffffffffffffffffffffffffffffffffffffffffffffffff8203612d8c57612d8b612d20565b5b600182019050919050565b6000612da282612827565b9150612dad83612827565b9250828203905081811115612dc557612dc4612d20565b5b92915050565b7f4d6178206e756d626572206f6620456e6372797074696f6e204b657973206d6960008201527f6e74656400000000000000000000000000000000000000000000000000000000602082015250565b6000612e27602483612780565b9150612e3282612dcb565b604082019050919050565b60006020820190508181036000830152612e5681612e1a565b9050919050565b7f4e487b7100000000000000000000000000000000000000000000000000000000600052603260045260246000fd5b6000819050919050565b600067ffffffffffffffff82169050919050565b6000819050919050565b6000612ecf612eca612ec584612e8c565b612eaa565b612e96565b9050919050565b612edf81612eb4565b82525050565b6000602082019050612efa6000830184612ed6565b92915050565b600081905092915050565b6000612f1682612775565b612f208185612f00565b9350612f30818560208601612791565b80840191505092915050565b6000612f488285612f0b565b9150612f548284612f0b565b91508190509392505050565b600081519050919050565b600082825260208201905092915050565b6000612f8782612f60565b612f918185612f6b565b9350612fa1818560208601612791565b612faa816127bb565b840191505092915050565b6000608082019050612fca60008301876128bc565b612fd760208301866128bc565b612fe46040830185612952565b8181036060830152612ff68184612f7c565b905095945050505050565b600081519050613010816126e6565b92915050565b60006020828403121561302c5761302b6126b0565b5b600061303a84828501613001565b91505092915050565b7f4e487b7100000000000000000000000000000000000000000000000000000000600052601260045260246000fd5b60008190508160005260206000209050919050565b60006020601f8301049050919050565b600082821b905092915050565b6000600883026130d47fffffffffffffffffffffffffffffffffffffffffffffffffffffffffffffffff82613097565b6130de8683613097565b95508019841693508086168417925050509392505050565b600061311161310c61310784612827565b612eaa565b612827565b9050919050565b6000819050919050565b61312b836130f6565b61313f61313782613118565b8484546130a4565b825550505050565b600090565b613154613147565b61315f818484613122565b505050565b5b818110156131835761317860008261314c565b600181019050613165565b5050565b601f8211156131c85761319981613072565b6131a284613087565b810160208510156131b1578190505b6131c56131bd85613087565b830182613164565b50505b505050565b600082821c905092915050565b60006131eb600019846008026131cd565b1980831691505092915050565b600061320483836131da565b9150826002028217905092915050565b61321d82612775565b67ffffffffffffffff81111561323657613235612a72565b5b6132408254612c8f565b61324b828285613187565b600060209050601f83116001811461327e576000841561326c578287015190505b61327685826131f8565b8655506132de565b601f19841661328c86613072565b60005b828110156132b45784890151825560018201915060208501945060208101905061328f565b868310156132d157848901516132cd601f8916826131da565b8355505b6001600288020188555050505b505050505050565b7f4e487b7100000000000000000000000000000000000000000000000000000000600052603160045260246000fdfea26469706673582212203c12a239bd29d135e91d42bd814a3a5bea6de6917b875f75ff45ec3fcc0e80a064736f6c63430008140033",
  "linkReferences": {},
  "deployedLinkReferences": {}
}