{
  "_format": "hh-sol-artifact-1",
  "contractName": "MintUpdateNFT",
  "sourceName": "contracts/MintUpdateNFT.sol",
  "abi": [
    {
      "inputs": [
        {
          "internalType": "uint256",
          "name": "_maxSupply",
          "type": "uint256"
        }
      ],
      "stateMutability": "nonpayable",
      "type": "constructor"
    },
    {
      "inputs": [],
      "name": "ERC721EnumerableForbiddenBatchMint",
      "type": "error"
    },
    {
      "inputs": [
        {
          "internalType": "address",
          "name": "sender",
          "type": "address"
        },
        {
          "internalType": "uint256",
          "name": "tokenId",
          "type": "uint256"
        },
        {
          "internalType": "address",
          "name": "owner",
          "type": "address"
        }
      ],
      "name": "ERC721IncorrectOwner",
      "type": "error"
    },
    {
      "inputs": [
        {
          "internalType": "address",
          "name": "operator",
          "type": "address"
        },
        {
          "internalType": "uint256",
          "name": "tokenId",
          "type": "uint256"
        }
      ],
      "name": "ERC721InsufficientApproval",
      "type": "error"
    },
    {
      "inputs": [
        {
          "internalType": "address",
          "name": "approver",
          "type": "address"
        }
      ],
      "name": "ERC721InvalidApprover",
      "type": "error"
    },
    {
      "inputs": [
        {
          "internalType": "address",
          "name": "operator",
          "type": "address"
        }
      ],
      "name": "ERC721InvalidOperator",
      "type": "error"
    },
    {
      "inputs": [
        {
          "internalType": "address",
          "name": "owner",
          "type": "address"
        }
      ],
      "name": "ERC721InvalidOwner",
      "type": "error"
    },
    {
      "inputs": [
        {
          "internalType": "address",
          "name": "receiver",
          "type": "address"
        }
      ],
      "name": "ERC721InvalidReceiver",
      "type": "error"
    },
    {
      "inputs": [
        {
          "internalType": "address",
          "name": "sender",
          "type": "address"
        }
      ],
      "name": "ERC721InvalidSender",
      "type": "error"
    },
    {
      "inputs": [
        {
          "internalType": "uint256",
          "name": "tokenId",
          "type": "uint256"
        }
      ],
      "name": "ERC721NonexistentToken",
      "type": "error"
    },
    {
      "inputs": [
        {
          "internalType": "address",
          "name": "owner",
          "type": "address"
        },
        {
          "internalType": "uint256",
          "name": "index",
          "type": "uint256"
        }
      ],
      "name": "ERC721OutOfBoundsIndex",
      "type": "error"
    },
    {
      "inputs": [],
      "name": "InvalidInitialization",
      "type": "error"
    },
    {
      "inputs": [],
      "name": "NotInitializing",
      "type": "error"
    },
    {
      "inputs": [
        {
          "internalType": "address",
          "name": "owner",
          "type": "address"
        }
      ],
      "name": "OwnableInvalidOwner",
      "type": "error"
    },
    {
      "inputs": [
        {
          "internalType": "address",
          "name": "account",
          "type": "address"
        }
      ],
      "name": "OwnableUnauthorizedAccount",
      "type": "error"
    },
    {
      "anonymous": false,
      "inputs": [
        {
          "indexed": true,
          "internalType": "address",
          "name": "owner",
          "type": "address"
        },
        {
          "indexed": true,
          "internalType": "address",
          "name": "approved",
          "type": "address"
        },
        {
          "indexed": true,
          "internalType": "uint256",
          "name": "tokenId",
          "type": "uint256"
        }
      ],
      "name": "Approval",
      "type": "event"
    },
    {
      "anonymous": false,
      "inputs": [
        {
          "indexed": true,
          "internalType": "address",
          "name": "owner",
          "type": "address"
        },
        {
          "indexed": true,
          "internalType": "address",
          "name": "operator",
          "type": "address"
        },
        {
          "indexed": false,
          "internalType": "bool",
          "name": "approved",
          "type": "bool"
        }
      ],
      "name": "ApprovalForAll",
      "type": "event"
    },
    {
      "anonymous": false,
      "inputs": [
        {
          "indexed": false,
          "internalType": "uint64",
          "name": "version",
          "type": "uint64"
        }
      ],
      "name": "Initialized",
      "type": "event"
    },
    {
      "anonymous": false,
      "inputs": [
        {
          "indexed": true,
          "internalType": "address",
          "name": "previousOwner",
          "type": "address"
        },
        {
          "indexed": true,
          "internalType": "address",
          "name": "newOwner",
          "type": "address"
        }
      ],
      "name": "OwnershipTransferred",
      "type": "event"
    },
    {
      "anonymous": false,
      "inputs": [
        {
          "indexed": true,
          "internalType": "address",
          "name": "from",
          "type": "address"
        },
        {
          "indexed": true,
          "internalType": "address",
          "name": "to",
          "type": "address"
        },
        {
          "indexed": true,
          "internalType": "uint256",
          "name": "tokenId",
          "type": "uint256"
        }
      ],
      "name": "Transfer",
      "type": "event"
    },
    {
      "anonymous": false,
      "inputs": [
        {
          "indexed": true,
          "internalType": "address",
          "name": "owner",
          "type": "address"
        },
        {
          "indexed": false,
          "internalType": "uint256",
          "name": "tokenId",
          "type": "uint256"
        }
      ],
      "name": "ZKPVerified",
      "type": "event"
    },
    {
      "inputs": [
        {
          "internalType": "address",
          "name": "to",
          "type": "address"
        },
        {
          "internalType": "uint256",
          "name": "tokenId",
          "type": "uint256"
        }
      ],
      "name": "approve",
      "outputs": [],
      "stateMutability": "nonpayable",
      "type": "function"
    },
    {
      "inputs": [
        {
          "internalType": "address",
          "name": "owner",
          "type": "address"
        }
      ],
      "name": "balanceOf",
      "outputs": [
        {
          "internalType": "uint256",
          "name": "",
          "type": "uint256"
        }
      ],
      "stateMutability": "view",
      "type": "function"
    },
    {
      "inputs": [
        {
          "internalType": "uint256",
          "name": "tokenId",
          "type": "uint256"
        }
      ],
      "name": "getApproved",
      "outputs": [
        {
          "internalType": "address",
          "name": "",
          "type": "address"
        }
      ],
      "stateMutability": "view",
      "type": "function"
    },
    {
      "inputs": [
        {
          "internalType": "address",
          "name": "initialOwner",
          "type": "address"
        }
      ],
      "name": "initialize",
      "outputs": [],
      "stateMutability": "nonpayable",
      "type": "function"
    },
    {
      "inputs": [
        {
          "internalType": "address",
          "name": "owner",
          "type": "address"
        },
        {
          "internalType": "address",
          "name": "operator",
          "type": "address"
        }
      ],
      "name": "isApprovedForAll",
      "outputs": [
        {
          "internalType": "bool",
          "name": "",
          "type": "bool"
        }
      ],
      "stateMutability": "view",
      "type": "function"
    },
    {
      "inputs": [],
      "name": "maxSupply",
      "outputs": [
        {
          "internalType": "uint256",
          "name": "",
          "type": "uint256"
        }
      ],
      "stateMutability": "view",
      "type": "function"
    },
    {
      "inputs": [],
      "name": "name",
      "outputs": [
        {
          "internalType": "string",
          "name": "",
          "type": "string"
        }
      ],
      "stateMutability": "view",
      "type": "function"
    },
    {
      "inputs": [],
      "name": "owner",
      "outputs": [
        {
          "internalType": "address",
          "name": "",
          "type": "address"
        }
      ],
      "stateMutability": "view",
      "type": "function"
    },
    {
      "inputs": [
        {
          "internalType": "uint256",
          "name": "tokenId",
          "type": "uint256"
        }
      ],
      "name": "ownerOf",
      "outputs": [
        {
          "internalType": "address",
          "name": "",
          "type": "address"
        }
      ],
      "stateMutability": "view",
      "type": "function"
    },
    {
      "inputs": [],
      "name": "renounceOwnership",
      "outputs": [],
      "stateMutability": "nonpayable",
      "type": "function"
    },
    {
      "inputs": [
        {
          "internalType": "address",
          "name": "to",
          "type": "address"
        },
        {
          "internalType": "string",
          "name": "proof",
          "type": "string"
        }
      ],
      "name": "safeMint",
      "outputs": [],
      "stateMutability": "nonpayable",
      "type": "function"
    },
    {
      "inputs": [
        {
          "internalType": "address",
          "name": "from",
          "type": "address"
        },
        {
          "internalType": "address",
          "name": "to",
          "type": "address"
        },
        {
          "internalType": "uint256",
          "name": "tokenId",
          "type": "uint256"
        }
      ],
      "name": "safeTransferFrom",
      "outputs": [],
      "stateMutability": "nonpayable",
      "type": "function"
    },
    {
      "inputs": [
        {
          "internalType": "address",
          "name": "from",
          "type": "address"
        },
        {
          "internalType": "address",
          "name": "to",
          "type": "address"
        },
        {
          "internalType": "uint256",
          "name": "tokenId",
          "type": "uint256"
        },
        {
          "internalType": "bytes",
          "name": "data",
          "type": "bytes"
        }
      ],
      "name": "safeTransferFrom",
      "outputs": [],
      "stateMutability": "nonpayable",
      "type": "function"
    },
    {
      "inputs": [
        {
          "internalType": "address",
          "name": "operator",
          "type": "address"
        },
        {
          "internalType": "bool",
          "name": "approved",
          "type": "bool"
        }
      ],
      "name": "setApprovalForAll",
      "outputs": [],
      "stateMutability": "nonpayable",
      "type": "function"
    },
    {
      "inputs": [
        {
          "internalType": "bytes4",
          "name": "interfaceId",
          "type": "bytes4"
        }
      ],
      "name": "supportsInterface",
      "outputs": [
        {
          "internalType": "bool",
          "name": "",
          "type": "bool"
        }
      ],
      "stateMutability": "view",
      "type": "function"
    },
    {
      "inputs": [],
      "name": "symbol",
      "outputs": [
        {
          "internalType": "string",
          "name": "",
          "type": "string"
        }
      ],
      "stateMutability": "view",
      "type": "function"
    },
    {
      "inputs": [
        {
          "internalType": "uint256",
          "name": "index",
          "type": "uint256"
        }
      ],
      "name": "tokenByIndex",
      "outputs": [
        {
          "internalType": "uint256",
          "name": "",
          "type": "uint256"
        }
      ],
      "stateMutability": "view",
      "type": "function"
    },
    {
      "inputs": [
        {
          "internalType": "address",
          "name": "owner",
          "type": "address"
        },
        {
          "internalType": "uint256",
          "name": "index",
          "type": "uint256"
        }
      ],
      "name": "tokenOfOwnerByIndex",
      "outputs": [
        {
          "internalType": "uint256",
          "name": "",
          "type": "uint256"
        }
      ],
      "stateMutability": "view",
      "type": "function"
    },
    {
      "inputs": [
        {
          "internalType": "uint256",
          "name": "tokenId",
          "type": "uint256"
        }
      ],
      "name": "tokenURI",
      "outputs": [
        {
          "internalType": "string",
          "name": "",
          "type": "string"
        }
      ],
      "stateMutability": "view",
      "type": "function"
    },
    {
      "inputs": [],
      "name": "totalSupply",
      "outputs": [
        {
          "internalType": "uint256",
          "name": "",
          "type": "uint256"
        }
      ],
      "stateMutability": "view",
      "type": "function"
    },
    {
      "inputs": [
        {
          "internalType": "address",
          "name": "from",
          "type": "address"
        },
        {
          "internalType": "address",
          "name": "to",
          "type": "address"
        },
        {
          "internalType": "uint256",
          "name": "tokenId",
          "type": "uint256"
        }
      ],
      "name": "transferFrom",
      "outputs": [],
      "stateMutability": "nonpayable",
      "type": "function"
    },
    {
      "inputs": [
        {
          "internalType": "address",
          "name": "newOwner",
          "type": "address"
        }
      ],
      "name": "transferOwnership",
      "outputs": [],
      "stateMutability": "nonpayable",
      "type": "function"
    },
    {
      "inputs": [
        {
          "internalType": "uint256",
          "name": "tokenId",
          "type": "uint256"
        },
        {
          "internalType": "string",
          "name": "proof",
          "type": "string"
        }
      ],
      "name": "verifyZKP",
      "outputs": [],
      "stateMutability": "nonpayable",
      "type": "function"
    }
  ],
  "bytecode": "0x60806040523480156200001157600080fd5b5060405162003b9238038062003b92833981810160405281019062000037919062000230565b62000053670bbd1b7f67d25d7b60c01b620001ed60201b60201c565b6200006f678ea3a5242cd4473860c01b620001ed60201b60201c565b806001819055506200009267ce803d5be5f6150f60c01b620001ed60201b60201c565b620000ae67a695de729bdc724a60c01b620001ed60201b60201c565b620000ca67b0bff10c2ffd528d60c01b620001ed60201b60201c565b60018054101562000112576040517f08c379a00000000000000000000000000000000000000000000000000000000081526004016200010990620002e9565b60405180910390fd5b6200012e670bb7ba6803a5a22960c01b620001ed60201b60201c565b6200014a6785c9030493d81cd460c01b620001ed60201b60201c565b620001666707b33d255288341960c01b620001ed60201b60201c565b62000182670ac7cb9cb3b6ef7960c01b620001ed60201b60201c565b600660015410620001ca576040517f08c379a0000000000000000000000000000000000000000000000000000000008152600401620001c19062000381565b60405180910390fd5b620001e66772795c5a3369c08b60c01b620001ed60201b60201c565b50620003a3565b50565b600080fd5b6000819050919050565b6200020a81620001f5565b81146200021657600080fd5b50565b6000815190506200022a81620001ff565b92915050565b600060208284031215620002495762000248620001f0565b5b6000620002598482850162000219565b91505092915050565b600082825260208201905092915050565b7f4d6178206e756d626572206f66205570646174652046696c65204e465473206d60008201527f7573742062652067726561746572207468616e20300000000000000000000000602082015250565b6000620002d160358362000262565b9150620002de8262000273565b604082019050919050565b600060208201905081810360008301526200030481620002c2565b9050919050565b7f4d6178206e756d626572206f66205570646174652046696c65204e465473206d60008201527f757374206265206c657373207468616e206f7220657175616c20746f20350000602082015250565b600062000369603e8362000262565b915062000376826200030b565b604082019050919050565b600060208201905081810360008301526200039c816200035a565b9050919050565b6137df80620003b36000396000f3fe608060405234801561001057600080fd5b506004361061014d5760003560e01c806370a08231116100c3578063c4d66de81161007c578063c4d66de81461039c578063c87b56dd146103b8578063d204c45e146103e8578063d5abeb0114610404578063e985e9c514610422578063f2fde38b146104525761014d565b806370a08231146102ee578063715018a61461031e5780638da5cb5b1461032857806395d89b4114610346578063a22cb46514610364578063b88d4fde146103805761014d565b80631fbc77b7116101155780631fbc77b71461020a57806323b872dd146102265780632f745c591461024257806342842e0e146102725780634f6ccce71461028e5780636352211e146102be5761014d565b806301ffc9a71461015257806306fdde0314610182578063081812fc146101a0578063095ea7b3146101d057806318160ddd146101ec575b600080fd5b61016c600480360381019061016791906129e1565b61046e565b6040516101799190612a29565b60405180910390f35b61018a6104bb565b6040516101979190612ad4565b60405180910390f35b6101ba60048036038101906101b59190612b2c565b61055c565b6040516101c79190612b9a565b60405180910390f35b6101ea60048036038101906101e59190612be1565b610578565b005b6101f461058e565b6040516102019190612c30565b60405180910390f35b610224600480360381019061021f9190612d80565b6105a9565b005b610240600480360381019061023b9190612ddc565b6106d8565b005b61025c60048036038101906102579190612be1565b6107da565b6040516102699190612c30565b60405180910390f35b61028c60048036038101906102879190612ddc565b610891565b005b6102a860048036038101906102a39190612b2c565b6108b1565b6040516102b59190612c30565b60405180910390f35b6102d860048036038101906102d39190612b2c565b610935565b6040516102e59190612b9a565b60405180910390f35b61030860048036038101906103039190612e2f565b610947565b6040516103159190612c30565b60405180910390f35b610326610a10565b005b610330610a24565b60405161033d9190612b9a565b60405180910390f35b61034e610a5c565b60405161035b9190612ad4565b60405180910390f35b61037e60048036038101906103799190612e88565b610afd565b005b61039a60048036038101906103959190612f69565b610b13565b005b6103b660048036038101906103b19190612e2f565b610b30565b005b6103d260048036038101906103cd9190612b2c565b610def565b6040516103df9190612ad4565b60405180910390f35b61040260048036038101906103fd9190612fec565b610e58565b005b61040c6110b6565b6040516104199190612c30565b60405180910390f35b61043c60048036038101906104379190613048565b6110bc565b6040516104499190612a29565b60405180910390f35b61046c60048036038101906104679190612e2f565b61115e565b005b600061048467f5e22ed17b13f83660c01b6111e4565b61049867c89bc0b5f9ca0d1060c01b6111e4565b6104ab66bb31593d76509760c01b6111e4565b6104b4826111e7565b9050919050565b606060006104c7611261565b90508060000180546104d8906130b7565b80601f0160208091040260200160405190810160405280929190818152602001828054610504906130b7565b80156105515780601f1061052657610100808354040283529160200191610551565b820191906000526020600020905b81548152906001019060200180831161053457829003601f168201915b505050505091505090565b600061056782611289565b5061057182611311565b9050919050565b61058a828261058561135c565b611364565b5050565b600080610599611376565b9050806002018054905091505090565b6105bd67eeed4661ff21584f60c01b6111e4565b6105d167c9715f759da3c26e60c01b6111e4565b6105e567dec36ab760c7e27060c01b6111e4565b6105f967676ff5cab6a499c360c01b6111e4565b610603828261139e565b610642576040517f08c379a000000000000000000000000000000000000000000000000000000000815260040161063990613134565b60405180910390fd5b610656672abfd446e1fe086d60c01b6111e4565b61066a67c1a21268fd00c2e960c01b6111e4565b61067e67f3fe3048df706c8c60c01b6111e4565b61068782610935565b73ffffffffffffffffffffffffffffffffffffffff167f6eb0b4b91d0871736cbd1a16447ddee2bd947a03f45a9594d744bc0d1016974b836040516106cc9190612c30565b60405180910390a25050565b600073ffffffffffffffffffffffffffffffffffffffff168273ffffffffffffffffffffffffffffffffffffffff160361074a5760006040517f64a0ae920000000000000000000000000000000000000000000000000000000081526004016107419190612b9a565b60405180910390fd5b600061075e838361075961135c565b6113e6565b90508373ffffffffffffffffffffffffffffffffffffffff168173ffffffffffffffffffffffffffffffffffffffff16146107d4578382826040517f64283d7b0000000000000000000000000000000000000000000000000000000081526004016107cb93929190613154565b60405180910390fd5b50505050565b6000806107e5611376565b90506107f084610947565b83106108355783836040517fa57d13dc00000000000000000000000000000000000000000000000000000000815260040161082c92919061318b565b60405180910390fd5b8060000160008573ffffffffffffffffffffffffffffffffffffffff1673ffffffffffffffffffffffffffffffffffffffff16815260200190815260200160002060008481526020019081526020016000205491505092915050565b6108ac83838360405180602001604052806000815250610b13565b505050565b6000806108bc611376565b90506108c661058e565b831061090c576000836040517fa57d13dc00000000000000000000000000000000000000000000000000000000815260040161090392919061318b565b60405180910390fd5b806002018381548110610922576109216131b4565b5b9060005260206000200154915050919050565b600061094082611289565b9050919050565b600080610952611261565b9050600073ffffffffffffffffffffffffffffffffffffffff168373ffffffffffffffffffffffffffffffffffffffff16036109c65760006040517f89c62b640000000000000000000000000000000000000000000000000000000081526004016109bd9190612b9a565b60405180910390fd5b8060030160008473ffffffffffffffffffffffffffffffffffffffff1673ffffffffffffffffffffffffffffffffffffffff16815260200190815260200160002054915050919050565b610a18611438565b610a2260006114bf565b565b600080610a2f611596565b90508060000160009054906101000a900473ffffffffffffffffffffffffffffffffffffffff1691505090565b60606000610a68611261565b9050806001018054610a79906130b7565b80601f0160208091040260200160405190810160405280929190818152602001828054610aa5906130b7565b8015610af25780601f10610ac757610100808354040283529160200191610af2565b820191906000526020600020905b815481529060010190602001808311610ad557829003601f168201915b505050505091505090565b610b0f610b0861135c565b83836115be565b5050565b610b1e8484846106d8565b610b2a8484848461173c565b50505050565b610b446799992b490c22b49c60c01b6111e4565b6000610b4e6118f3565b905060008160000160089054906101000a900460ff1615905060008260000160009054906101000a900467ffffffffffffffff1690506000808267ffffffffffffffff16148015610b9c5750825b9050600060018367ffffffffffffffff16148015610bd1575060003073ffffffffffffffffffffffffffffffffffffffff163b145b905081158015610bdf575080155b15610c16576040517ff92ee8a900000000000000000000000000000000000000000000000000000000815260040160405180910390fd5b60018560000160006101000a81548167ffffffffffffffff021916908367ffffffffffffffff1602179055508315610c665760018560000160086101000a81548160ff0219169083151502179055505b610c7a67bb000c6981495f2760c01b6111e4565b610c8e670b1421f23acdaae660c01b6111e4565b610ca2672712d27fa4d5b34b60c01b6111e4565b610cb667767bdd21f4c77bee60c01b6111e4565b610d2a6040518060400160405280600b81526020017f5570646174652046696c650000000000000000000000000000000000000000008152506040518060400160405280600281526020017f554600000000000000000000000000000000000000000000000000000000000081525061191b565b610d3e67a0bcabdd0823f87660c01b6111e4565b610d52672757c79391c906db60c01b6111e4565b610d5a611931565b610d6e6778ea617130716cce60c01b6111e4565b610d8267127cb77f5cc9424860c01b6111e4565b610d8b8661193b565b8315610de75760008560000160086101000a81548160ff0219169083151502179055507fc7f505b2f371ae2175ee4913f4499e1f2633a7b5936321eed1cdaeb6115181d26001604051610dde919061323c565b60405180910390a15b505050505050565b6060610dfa82611289565b506000610e0561194f565b90506000815111610e255760405180602001604052806000815250610e50565b80610e2f84611966565b604051602001610e40929190613293565b6040516020818303038152906040525b915050919050565b610e6c67a3adbecb058bd2ae60c01b6111e4565b610e8067ded84796dd60e10660c01b6111e4565b610e94670e2b850cc3b0038860c01b6111e4565b6000806000815480929190610ea8906132e6565b919050559050610ec267309d9f72766b3b5f60c01b6111e4565b610ed6679be71c9c6ef8415860c01b6111e4565b610eea67e5f8978cdb480fe260c01b6111e4565b60018054610ef8919061332e565b811115610f3a576040517f08c379a0000000000000000000000000000000000000000000000000000000008152600401610f31906133d4565b60405180910390fd5b610f4e67296e577a6bf486f960c01b6111e4565b610f6267a1abcce6eb99351660c01b6111e4565b610f7667b19689558bad0bdf60c01b6111e4565b610f8a677767192547908c5360c01b6111e4565b610f94818361139e565b610fd3576040517f08c379a0000000000000000000000000000000000000000000000000000000008152600401610fca90613134565b60405180910390fd5b610fe767805ff2b6e0bcb33860c01b6111e4565b610ffb67bb453e3f7459ec2b60c01b6111e4565b61100f676d6c7affb20471cc60c01b6111e4565b6110198382611a34565b61102d67403486d1050bc65d60c01b6111e4565b8080611038906132e6565b91505061104f67566a0cc664c5ada560c01b6111e4565b6110636729e4e5f68d43e76160c01b6111e4565b8273ffffffffffffffffffffffffffffffffffffffff167f6eb0b4b91d0871736cbd1a16447ddee2bd947a03f45a9594d744bc0d1016974b826040516110a99190612c30565b60405180910390a2505050565b60015481565b6000806110c7611261565b90508060050160008573ffffffffffffffffffffffffffffffffffffffff1673ffffffffffffffffffffffffffffffffffffffff16815260200190815260200160002060008473ffffffffffffffffffffffffffffffffffffffff1673ffffffffffffffffffffffffffffffffffffffff16815260200190815260200160002060009054906101000a900460ff1691505092915050565b611166611438565b600073ffffffffffffffffffffffffffffffffffffffff168173ffffffffffffffffffffffffffffffffffffffff16036111d85760006040517f1e4fbdf70000000000000000000000000000000000000000000000000000000081526004016111cf9190612b9a565b60405180910390fd5b6111e1816114bf565b50565b50565b60007f780e9d63000000000000000000000000000000000000000000000000000000007bffffffffffffffffffffffffffffffffffffffffffffffffffffffff1916827bffffffffffffffffffffffffffffffffffffffffffffffffffffffff1916148061125a575061125982611a52565b5b9050919050565b60007f80bb2b638cc20bc4d0a60d66940f3ab4a00c1d7b313497ca82fb0b4ab0079300905090565b60008061129583611b34565b9050600073ffffffffffffffffffffffffffffffffffffffff168173ffffffffffffffffffffffffffffffffffffffff160361130857826040517f7e2732890000000000000000000000000000000000000000000000000000000081526004016112ff9190612c30565b60405180910390fd5b80915050919050565b60008061131c611261565b905080600401600084815260200190815260200160002060009054906101000a900473ffffffffffffffffffffffffffffffffffffffff16915050919050565b600033905090565b6113718383836001611b7f565b505050565b60007f645e039705490088daad89bae25049a34f4a9072d398537b1ab2425f24cbed00905090565b60006113b467ce5f1138622282cf60c01b6111e4565b6113c8670465f5995e00108f60c01b6111e4565b6113dc677fa93cf5767f3aab60c01b6111e4565b6001905092915050565b60006113fc67e45f638161ac225460c01b6111e4565b61141067df5d4befff61680960c01b6111e4565b61142467f039631fb4b0ea5660c01b6111e4565b61142f848484611d53565b90509392505050565b61144061135c565b73ffffffffffffffffffffffffffffffffffffffff1661145e610a24565b73ffffffffffffffffffffffffffffffffffffffff16146114bd5761148161135c565b6040517f118cdaa70000000000000000000000000000000000000000000000000000000081526004016114b49190612b9a565b60405180910390fd5b565b60006114c9611596565b905060008160000160009054906101000a900473ffffffffffffffffffffffffffffffffffffffff169050828260000160006101000a81548173ffffffffffffffffffffffffffffffffffffffff021916908373ffffffffffffffffffffffffffffffffffffffff1602179055508273ffffffffffffffffffffffffffffffffffffffff168173ffffffffffffffffffffffffffffffffffffffff167f8be0079c531659141344cd1fd0a4f28419497f9722a3daafe3b4186f6b6457e060405160405180910390a3505050565b60007f9016d09d72d40fdae2fd8ceac6b6234c7706214fd39c1cd1e609a0528c199300905090565b60006115c8611261565b9050600073ffffffffffffffffffffffffffffffffffffffff168373ffffffffffffffffffffffffffffffffffffffff160361163b57826040517f5b08ba180000000000000000000000000000000000000000000000000000000081526004016116329190612b9a565b60405180910390fd5b818160050160008673ffffffffffffffffffffffffffffffffffffffff1673ffffffffffffffffffffffffffffffffffffffff16815260200190815260200160002060008573ffffffffffffffffffffffffffffffffffffffff1673ffffffffffffffffffffffffffffffffffffffff16815260200190815260200160002060006101000a81548160ff0219169083151502179055508273ffffffffffffffffffffffffffffffffffffffff168473ffffffffffffffffffffffffffffffffffffffff167f17307eab39ab6107e8899845ad3d59bd9653f200f220920489ca2b5937696c318460405161172e9190612a29565b60405180910390a350505050565b60008373ffffffffffffffffffffffffffffffffffffffff163b11156118ed578273ffffffffffffffffffffffffffffffffffffffff1663150b7a0261178061135c565b8685856040518563ffffffff1660e01b81526004016117a29493929190613449565b6020604051808303816000875af19250505080156117de57506040513d601f19601f820116820180604052508101906117db91906134aa565b60015b611862573d806000811461180e576040519150601f19603f3d011682016040523d82523d6000602084013e611813565b606091505b50600081510361185a57836040517f64a0ae920000000000000000000000000000000000000000000000000000000081526004016118519190612b9a565b60405180910390fd5b805181602001fd5b63150b7a0260e01b7bffffffffffffffffffffffffffffffffffffffffffffffffffffffff1916817bffffffffffffffffffffffffffffffffffffffffffffffffffffffff1916146118eb57836040517f64a0ae920000000000000000000000000000000000000000000000000000000081526004016118e29190612b9a565b60405180910390fd5b505b50505050565b60007ff0c57e16840df040f15088dc2f81fe391c3923bec73e23a9662efc9c229c6a00905090565b611923611e70565b61192d8282611eb0565b5050565b611939611e70565b565b611943611e70565b61194c81611eed565b50565b606060405180602001604052806000815250905090565b60606000600161197584611f73565b01905060008167ffffffffffffffff81111561199457611993612c55565b5b6040519080825280601f01601f1916602001820160405280156119c65781602001600182028036833780820191505090505b509050600082602001820190505b600115611a29578080600190039150507f3031323334353637383961626364656600000000000000000000000000000000600a86061a8153600a8581611a1d57611a1c6134d7565b5b049450600085036119d4575b819350505050919050565b611a4e8282604051806020016040528060008152506120c6565b5050565b60007f80ac58cd000000000000000000000000000000000000000000000000000000007bffffffffffffffffffffffffffffffffffffffffffffffffffffffff1916827bffffffffffffffffffffffffffffffffffffffffffffffffffffffff19161480611b1d57507f5b5e139f000000000000000000000000000000000000000000000000000000007bffffffffffffffffffffffffffffffffffffffffffffffffffffffff1916827bffffffffffffffffffffffffffffffffffffffffffffffffffffffff1916145b80611b2d5750611b2c826120e2565b5b9050919050565b600080611b3f611261565b905080600201600084815260200190815260200160002060009054906101000a900473ffffffffffffffffffffffffffffffffffffffff16915050919050565b6000611b89611261565b90508180611bc45750600073ffffffffffffffffffffffffffffffffffffffff168373ffffffffffffffffffffffffffffffffffffffff1614155b15611cf8576000611bd485611289565b9050600073ffffffffffffffffffffffffffffffffffffffff168473ffffffffffffffffffffffffffffffffffffffff1614158015611c3f57508373ffffffffffffffffffffffffffffffffffffffff168173ffffffffffffffffffffffffffffffffffffffff1614155b8015611c525750611c5081856110bc565b155b15611c9457836040517fa9fbf51f000000000000000000000000000000000000000000000000000000008152600401611c8b9190612b9a565b60405180910390fd5b8215611cf657848673ffffffffffffffffffffffffffffffffffffffff168273ffffffffffffffffffffffffffffffffffffffff167f8c5be1e5ebec7d5bd14f71427d1e84f3dd0314c0f7b2291e5b200ac8c7c3b92560405160405180910390a45b505b8481600401600086815260200190815260200160002060006101000a81548173ffffffffffffffffffffffffffffffffffffffff021916908373ffffffffffffffffffffffffffffffffffffffff1602179055505050505050565b600080611d6185858561214c565b9050600073ffffffffffffffffffffffffffffffffffffffff168173ffffffffffffffffffffffffffffffffffffffff1603611da557611da084612379565b611de4565b8473ffffffffffffffffffffffffffffffffffffffff168173ffffffffffffffffffffffffffffffffffffffff1614611de357611de281856123d5565b5b5b600073ffffffffffffffffffffffffffffffffffffffff168573ffffffffffffffffffffffffffffffffffffffff1603611e2657611e218461254f565b611e65565b8473ffffffffffffffffffffffffffffffffffffffff168173ffffffffffffffffffffffffffffffffffffffff1614611e6457611e63858561263b565b5b5b809150509392505050565b611e786126d7565b611eae576040517fd7e6bcf800000000000000000000000000000000000000000000000000000000815260040160405180910390fd5b565b611eb8611e70565b6000611ec2611261565b905082816000019081611ed591906136a8565b5081816001019081611ee791906136a8565b50505050565b611ef5611e70565b600073ffffffffffffffffffffffffffffffffffffffff168173ffffffffffffffffffffffffffffffffffffffff1603611f675760006040517f1e4fbdf7000000000000000000000000000000000000000000000000000000008152600401611f5e9190612b9a565b60405180910390fd5b611f70816114bf565b50565b600080600090507a184f03e93ff9f4daa797ed6e38ed64bf6a1f0100000000000000008310611fd1577a184f03e93ff9f4daa797ed6e38ed64bf6a1f0100000000000000008381611fc757611fc66134d7565b5b0492506040810190505b6d04ee2d6d415b85acef8100000000831061200e576d04ee2d6d415b85acef81000000008381612004576120036134d7565b5b0492506020810190505b662386f26fc10000831061203d57662386f26fc100008381612033576120326134d7565b5b0492506010810190505b6305f5e1008310612066576305f5e100838161205c5761205b6134d7565b5b0492506008810190505b612710831061208b576127108381612081576120806134d7565b5b0492506004810190505b606483106120ae57606483816120a4576120a36134d7565b5b0492506002810190505b600a83106120bd576001810190505b80915050919050565b6120d083836126f7565b6120dd600084848461173c565b505050565b60007f01ffc9a7000000000000000000000000000000000000000000000000000000007bffffffffffffffffffffffffffffffffffffffffffffffffffffffff1916827bffffffffffffffffffffffffffffffffffffffffffffffffffffffff1916149050919050565b600080612157611261565b9050600061216485611b34565b9050600073ffffffffffffffffffffffffffffffffffffffff168473ffffffffffffffffffffffffffffffffffffffff16146121a6576121a58185876127f0565b5b600073ffffffffffffffffffffffffffffffffffffffff168173ffffffffffffffffffffffffffffffffffffffff1614612239576121e8600086600080611b7f565b60018260030160008373ffffffffffffffffffffffffffffffffffffffff1673ffffffffffffffffffffffffffffffffffffffff168152602001908152602001600020600082825403925050819055505b600073ffffffffffffffffffffffffffffffffffffffff168673ffffffffffffffffffffffffffffffffffffffff16146122be5760018260030160008873ffffffffffffffffffffffffffffffffffffffff1673ffffffffffffffffffffffffffffffffffffffff168152602001908152602001600020600082825401925050819055505b8582600201600087815260200190815260200160002060006101000a81548173ffffffffffffffffffffffffffffffffffffffff021916908373ffffffffffffffffffffffffffffffffffffffff160217905550848673ffffffffffffffffffffffffffffffffffffffff168273ffffffffffffffffffffffffffffffffffffffff167fddf252ad1be2c89b69c2b068fc378daa952ba7f163c4a11628f55a4df523b3ef60405160405180910390a480925050509392505050565b6000612383611376565b9050806002018054905081600301600084815260200190815260200160002081905550806002018290806001815401808255809150506001900390600052602060002001600090919091909150555050565b60006123df611376565b905060006123ec84610947565b905060008260010160008581526020019081526020016000205490508181146124d95760008360000160008773ffffffffffffffffffffffffffffffffffffffff1673ffffffffffffffffffffffffffffffffffffffff1681526020019081526020016000206000848152602001908152602001600020549050808460000160008873ffffffffffffffffffffffffffffffffffffffff1673ffffffffffffffffffffffffffffffffffffffff1681526020019081526020016000206000848152602001908152602001600020819055508184600101600083815260200190815260200160002081905550505b826001016000858152602001908152602001600020600090558260000160008673ffffffffffffffffffffffffffffffffffffffff1673ffffffffffffffffffffffffffffffffffffffff1681526020019081526020016000206000838152602001908152602001600020600090555050505050565b6000612559611376565b9050600060018260020180549050612571919061332e565b9050600082600301600085815260200190815260200160002054905060008360020183815481106125a5576125a46131b4565b5b90600052602060002001549050808460020183815481106125c9576125c86131b4565b5b90600052602060002001819055508184600301600083815260200190815260200160002081905550836003016000868152602001908152602001600020600090558360020180548061261e5761261d61377a565b5b600190038181906000526020600020016000905590555050505050565b6000612645611376565b90506000600161265485610947565b61265e919061332e565b9050828260000160008673ffffffffffffffffffffffffffffffffffffffff1673ffffffffffffffffffffffffffffffffffffffff168152602001908152602001600020600083815260200190815260200160002081905550808260010160008581526020019081526020016000208190555050505050565b60006126e16118f3565b60000160089054906101000a900460ff16905090565b600073ffffffffffffffffffffffffffffffffffffffff168273ffffffffffffffffffffffffffffffffffffffff16036127695760006040517f64a0ae920000000000000000000000000000000000000000000000000000000081526004016127609190612b9a565b60405180910390fd5b6000612777838360006113e6565b9050600073ffffffffffffffffffffffffffffffffffffffff168173ffffffffffffffffffffffffffffffffffffffff16146127eb5760006040517f73c6ac6e0000000000000000000000000000000000000000000000000000000081526004016127e29190612b9a565b60405180910390fd5b505050565b6127fb8383836128b4565b6128af57600073ffffffffffffffffffffffffffffffffffffffff168373ffffffffffffffffffffffffffffffffffffffff160361287057806040517f7e2732890000000000000000000000000000000000000000000000000000000081526004016128679190612c30565b60405180910390fd5b81816040517f177e802f0000000000000000000000000000000000000000000000000000000081526004016128a692919061318b565b60405180910390fd5b505050565b60008073ffffffffffffffffffffffffffffffffffffffff168373ffffffffffffffffffffffffffffffffffffffff161415801561296c57508273ffffffffffffffffffffffffffffffffffffffff168473ffffffffffffffffffffffffffffffffffffffff16148061292d575061292c84846110bc565b5b8061296b57508273ffffffffffffffffffffffffffffffffffffffff1661295383611311565b73ffffffffffffffffffffffffffffffffffffffff16145b5b90509392505050565b6000604051905090565b600080fd5b600080fd5b60007fffffffff0000000000000000000000000000000000000000000000000000000082169050919050565b6129be81612989565b81146129c957600080fd5b50565b6000813590506129db816129b5565b92915050565b6000602082840312156129f7576129f661297f565b5b6000612a05848285016129cc565b91505092915050565b60008115159050919050565b612a2381612a0e565b82525050565b6000602082019050612a3e6000830184612a1a565b92915050565b600081519050919050565b600082825260208201905092915050565b60005b83811015612a7e578082015181840152602081019050612a63565b60008484015250505050565b6000601f19601f8301169050919050565b6000612aa682612a44565b612ab08185612a4f565b9350612ac0818560208601612a60565b612ac981612a8a565b840191505092915050565b60006020820190508181036000830152612aee8184612a9b565b905092915050565b6000819050919050565b612b0981612af6565b8114612b1457600080fd5b50565b600081359050612b2681612b00565b92915050565b600060208284031215612b4257612b4161297f565b5b6000612b5084828501612b17565b91505092915050565b600073ffffffffffffffffffffffffffffffffffffffff82169050919050565b6000612b8482612b59565b9050919050565b612b9481612b79565b82525050565b6000602082019050612baf6000830184612b8b565b92915050565b612bbe81612b79565b8114612bc957600080fd5b50565b600081359050612bdb81612bb5565b92915050565b60008060408385031215612bf857612bf761297f565b5b6000612c0685828601612bcc565b9250506020612c1785828601612b17565b9150509250929050565b612c2a81612af6565b82525050565b6000602082019050612c456000830184612c21565b92915050565b600080fd5b600080fd5b7f4e487b7100000000000000000000000000000000000000000000000000000000600052604160045260246000fd5b612c8d82612a8a565b810181811067ffffffffffffffff82111715612cac57612cab612c55565b5b80604052505050565b6000612cbf612975565b9050612ccb8282612c84565b919050565b600067ffffffffffffffff821115612ceb57612cea612c55565b5b612cf482612a8a565b9050602081019050919050565b82818337600083830152505050565b6000612d23612d1e84612cd0565b612cb5565b905082815260208101848484011115612d3f57612d3e612c50565b5b612d4a848285612d01565b509392505050565b600082601f830112612d6757612d66612c4b565b5b8135612d77848260208601612d10565b91505092915050565b60008060408385031215612d9757612d9661297f565b5b6000612da585828601612b17565b925050602083013567ffffffffffffffff811115612dc657612dc5612984565b5b612dd285828601612d52565b9150509250929050565b600080600060608486031215612df557612df461297f565b5b6000612e0386828701612bcc565b9350506020612e1486828701612bcc565b9250506040612e2586828701612b17565b9150509250925092565b600060208284031215612e4557612e4461297f565b5b6000612e5384828501612bcc565b91505092915050565b612e6581612a0e565b8114612e7057600080fd5b50565b600081359050612e8281612e5c565b92915050565b60008060408385031215612e9f57612e9e61297f565b5b6000612ead85828601612bcc565b9250506020612ebe85828601612e73565b9150509250929050565b600067ffffffffffffffff821115612ee357612ee2612c55565b5b612eec82612a8a565b9050602081019050919050565b6000612f0c612f0784612ec8565b612cb5565b905082815260208101848484011115612f2857612f27612c50565b5b612f33848285612d01565b509392505050565b600082601f830112612f5057612f4f612c4b565b5b8135612f60848260208601612ef9565b91505092915050565b60008060008060808587031215612f8357612f8261297f565b5b6000612f9187828801612bcc565b9450506020612fa287828801612bcc565b9350506040612fb387828801612b17565b925050606085013567ffffffffffffffff811115612fd457612fd3612984565b5b612fe087828801612f3b565b91505092959194509250565b600080604083850312156130035761300261297f565b5b600061301185828601612bcc565b925050602083013567ffffffffffffffff81111561303257613031612984565b5b61303e85828601612d52565b9150509250929050565b6000806040838503121561305f5761305e61297f565b5b600061306d85828601612bcc565b925050602061307e85828601612bcc565b9150509250929050565b7f4e487b7100000000000000000000000000000000000000000000000000000000600052602260045260246000fd5b600060028204905060018216806130cf57607f821691505b6020821081036130e2576130e1613088565b5b50919050565b7f5a4b5020766572696669636174696f6e206661696c6564000000000000000000600082015250565b600061311e601783612a4f565b9150613129826130e8565b602082019050919050565b6000602082019050818103600083015261314d81613111565b9050919050565b60006060820190506131696000830186612b8b565b6131766020830185612c21565b6131836040830184612b8b565b949350505050565b60006040820190506131a06000830185612b8b565b6131ad6020830184612c21565b9392505050565b7f4e487b7100000000000000000000000000000000000000000000000000000000600052603260045260246000fd5b6000819050919050565b600067ffffffffffffffff82169050919050565b6000819050919050565b600061322661322161321c846131e3565b613201565b6131ed565b9050919050565b6132368161320b565b82525050565b6000602082019050613251600083018461322d565b92915050565b600081905092915050565b600061326d82612a44565b6132778185613257565b9350613287818560208601612a60565b80840191505092915050565b600061329f8285613262565b91506132ab8284613262565b91508190509392505050565b7f4e487b7100000000000000000000000000000000000000000000000000000000600052601160045260246000fd5b60006132f182612af6565b91507fffffffffffffffffffffffffffffffffffffffffffffffffffffffffffffffff8203613323576133226132b7565b5b600182019050919050565b600061333982612af6565b915061334483612af6565b925082820390508181111561335c5761335b6132b7565b5b92915050565b7f4d6178206e756d626572206f66205570646174652046696c65204e465473206d60008201527f696e746564000000000000000000000000000000000000000000000000000000602082015250565b60006133be602583612a4f565b91506133c982613362565b604082019050919050565b600060208201905081810360008301526133ed816133b1565b9050919050565b600081519050919050565b600082825260208201905092915050565b600061341b826133f4565b61342581856133ff565b9350613435818560208601612a60565b61343e81612a8a565b840191505092915050565b600060808201905061345e6000830187612b8b565b61346b6020830186612b8b565b6134786040830185612c21565b818103606083015261348a8184613410565b905095945050505050565b6000815190506134a4816129b5565b92915050565b6000602082840312156134c0576134bf61297f565b5b60006134ce84828501613495565b91505092915050565b7f4e487b7100000000000000000000000000000000000000000000000000000000600052601260045260246000fd5b60008190508160005260206000209050919050565b60006020601f8301049050919050565b600082821b905092915050565b6000600883026135687fffffffffffffffffffffffffffffffffffffffffffffffffffffffffffffffff8261352b565b613572868361352b565b95508019841693508086168417925050509392505050565b60006135a56135a061359b84612af6565b613201565b612af6565b9050919050565b6000819050919050565b6135bf8361358a565b6135d36135cb826135ac565b848454613538565b825550505050565b600090565b6135e86135db565b6135f38184846135b6565b505050565b5b818110156136175761360c6000826135e0565b6001810190506135f9565b5050565b601f82111561365c5761362d81613506565b6136368461351b565b81016020851015613645578190505b6136596136518561351b565b8301826135f8565b50505b505050565b600082821c905092915050565b600061367f60001984600802613661565b1980831691505092915050565b6000613698838361366e565b9150826002028217905092915050565b6136b182612a44565b67ffffffffffffffff8111156136ca576136c9612c55565b5b6136d482546130b7565b6136df82828561361b565b600060209050601f8311600181146137125760008415613700578287015190505b61370a858261368c565b865550613772565b601f19841661372086613506565b60005b8281101561374857848901518255600182019150602085019450602081019050613723565b868310156137655784890151613761601f89168261366e565b8355505b6001600288020188555050505b505050505050565b7f4e487b7100000000000000000000000000000000000000000000000000000000600052603160045260246000fdfea2646970667358221220e39e0f94844de12088e7435dd197ff5ec3df7742b90ee85dda6ba612d66081c164736f6c63430008140033",
  "linkReferences": {},
  "deployedLinkReferences": {}
}