{
  "_format": "hh-sol-artifact-1",
  "contractName": "VToken",
  "sourceName": "contracts/VToken.sol",
  "abi": [
    {
      "inputs": [
        {
          "internalType": "address",
          "name": "initialOwner",
          "type": "address"
        },
        {
          "internalType": "uint256",
          "name": "_maxSupply",
          "type": "uint256"
        }
      ],
      "stateMutability": "nonpayable",
      "type": "constructor"
    },
    {
      "inputs": [],
      "name": "ECDSAInvalidSignature",
      "type": "error"
    },
    {
      "inputs": [
        {
          "internalType": "uint256",
          "name": "length",
          "type": "uint256"
        }
      ],
      "name": "ECDSAInvalidSignatureLength",
      "type": "error"
    },
    {
      "inputs": [
        {
          "internalType": "bytes32",
          "name": "s",
          "type": "bytes32"
        }
      ],
      "name": "ECDSAInvalidSignatureS",
      "type": "error"
    },
    {
      "inputs": [
        {
          "internalType": "address",
          "name": "spender",
          "type": "address"
        },
        {
          "internalType": "uint256",
          "name": "allowance",
          "type": "uint256"
        },
        {
          "internalType": "uint256",
          "name": "needed",
          "type": "uint256"
        }
      ],
      "name": "ERC20InsufficientAllowance",
      "type": "error"
    },
    {
      "inputs": [
        {
          "internalType": "address",
          "name": "sender",
          "type": "address"
        },
        {
          "internalType": "uint256",
          "name": "balance",
          "type": "uint256"
        },
        {
          "internalType": "uint256",
          "name": "needed",
          "type": "uint256"
        }
      ],
      "name": "ERC20InsufficientBalance",
      "type": "error"
    },
    {
      "inputs": [
        {
          "internalType": "address",
          "name": "approver",
          "type": "address"
        }
      ],
      "name": "ERC20InvalidApprover",
      "type": "error"
    },
    {
      "inputs": [
        {
          "internalType": "address",
          "name": "receiver",
          "type": "address"
        }
      ],
      "name": "ERC20InvalidReceiver",
      "type": "error"
    },
    {
      "inputs": [
        {
          "internalType": "address",
          "name": "sender",
          "type": "address"
        }
      ],
      "name": "ERC20InvalidSender",
      "type": "error"
    },
    {
      "inputs": [
        {
          "internalType": "address",
          "name": "spender",
          "type": "address"
        }
      ],
      "name": "ERC20InvalidSpender",
      "type": "error"
    },
    {
      "inputs": [
        {
          "internalType": "uint256",
          "name": "deadline",
          "type": "uint256"
        }
      ],
      "name": "ERC2612ExpiredSignature",
      "type": "error"
    },
    {
      "inputs": [
        {
          "internalType": "address",
          "name": "signer",
          "type": "address"
        },
        {
          "internalType": "address",
          "name": "owner",
          "type": "address"
        }
      ],
      "name": "ERC2612InvalidSigner",
      "type": "error"
    },
    {
      "inputs": [
        {
          "internalType": "address",
          "name": "account",
          "type": "address"
        },
        {
          "internalType": "uint256",
          "name": "currentNonce",
          "type": "uint256"
        }
      ],
      "name": "InvalidAccountNonce",
      "type": "error"
    },
    {
      "inputs": [],
      "name": "InvalidShortString",
      "type": "error"
    },
    {
      "inputs": [
        {
          "internalType": "address",
          "name": "owner",
          "type": "address"
        }
      ],
      "name": "OwnableInvalidOwner",
      "type": "error"
    },
    {
      "inputs": [
        {
          "internalType": "address",
          "name": "account",
          "type": "address"
        }
      ],
      "name": "OwnableUnauthorizedAccount",
      "type": "error"
    },
    {
      "inputs": [
        {
          "internalType": "string",
          "name": "str",
          "type": "string"
        }
      ],
      "name": "StringTooLong",
      "type": "error"
    },
    {
      "anonymous": false,
      "inputs": [
        {
          "indexed": true,
          "internalType": "address",
          "name": "owner",
          "type": "address"
        },
        {
          "indexed": true,
          "internalType": "address",
          "name": "spender",
          "type": "address"
        },
        {
          "indexed": false,
          "internalType": "uint256",
          "name": "value",
          "type": "uint256"
        }
      ],
      "name": "Approval",
      "type": "event"
    },
    {
      "anonymous": false,
      "inputs": [],
      "name": "EIP712DomainChanged",
      "type": "event"
    },
    {
      "anonymous": false,
      "inputs": [
        {
          "indexed": true,
          "internalType": "address",
          "name": "previousOwner",
          "type": "address"
        },
        {
          "indexed": true,
          "internalType": "address",
          "name": "newOwner",
          "type": "address"
        }
      ],
      "name": "OwnershipTransferred",
      "type": "event"
    },
    {
      "anonymous": false,
      "inputs": [
        {
          "indexed": true,
          "internalType": "address",
          "name": "from",
          "type": "address"
        },
        {
          "indexed": true,
          "internalType": "address",
          "name": "to",
          "type": "address"
        },
        {
          "indexed": false,
          "internalType": "uint256",
          "name": "value",
          "type": "uint256"
        }
      ],
      "name": "Transfer",
      "type": "event"
    },
    {
      "inputs": [],
      "name": "DOMAIN_SEPARATOR",
      "outputs": [
        {
          "internalType": "bytes32",
          "name": "",
          "type": "bytes32"
        }
      ],
      "stateMutability": "view",
      "type": "function"
    },
    {
      "inputs": [
        {
          "internalType": "address",
          "name": "owner",
          "type": "address"
        },
        {
          "internalType": "address",
          "name": "spender",
          "type": "address"
        }
      ],
      "name": "allowance",
      "outputs": [
        {
          "internalType": "uint256",
          "name": "",
          "type": "uint256"
        }
      ],
      "stateMutability": "view",
      "type": "function"
    },
    {
      "inputs": [
        {
          "internalType": "address",
          "name": "spender",
          "type": "address"
        },
        {
          "internalType": "uint256",
          "name": "value",
          "type": "uint256"
        }
      ],
      "name": "approve",
      "outputs": [
        {
          "internalType": "bool",
          "name": "",
          "type": "bool"
        }
      ],
      "stateMutability": "nonpayable",
      "type": "function"
    },
    {
      "inputs": [
        {
          "internalType": "address",
          "name": "account",
          "type": "address"
        }
      ],
      "name": "balanceOf",
      "outputs": [
        {
          "internalType": "uint256",
          "name": "",
          "type": "uint256"
        }
      ],
      "stateMutability": "view",
      "type": "function"
    },
    {
      "inputs": [
        {
          "internalType": "uint256",
          "name": "value",
          "type": "uint256"
        }
      ],
      "name": "burn",
      "outputs": [],
      "stateMutability": "nonpayable",
      "type": "function"
    },
    {
      "inputs": [
        {
          "internalType": "address",
          "name": "account",
          "type": "address"
        },
        {
          "internalType": "uint256",
          "name": "value",
          "type": "uint256"
        }
      ],
      "name": "burnFrom",
      "outputs": [],
      "stateMutability": "nonpayable",
      "type": "function"
    },
    {
      "inputs": [],
      "name": "decimals",
      "outputs": [
        {
          "internalType": "uint8",
          "name": "",
          "type": "uint8"
        }
      ],
      "stateMutability": "view",
      "type": "function"
    },
    {
      "inputs": [],
      "name": "eip712Domain",
      "outputs": [
        {
          "internalType": "bytes1",
          "name": "fields",
          "type": "bytes1"
        },
        {
          "internalType": "string",
          "name": "name",
          "type": "string"
        },
        {
          "internalType": "string",
          "name": "version",
          "type": "string"
        },
        {
          "internalType": "uint256",
          "name": "chainId",
          "type": "uint256"
        },
        {
          "internalType": "address",
          "name": "verifyingContract",
          "type": "address"
        },
        {
          "internalType": "bytes32",
          "name": "salt",
          "type": "bytes32"
        },
        {
          "internalType": "uint256[]",
          "name": "extensions",
          "type": "uint256[]"
        }
      ],
      "stateMutability": "view",
      "type": "function"
    },
    {
      "inputs": [],
      "name": "maxSupply",
      "outputs": [
        {
          "internalType": "uint256",
          "name": "",
          "type": "uint256"
        }
      ],
      "stateMutability": "view",
      "type": "function"
    },
    {
      "inputs": [
        {
          "internalType": "address",
          "name": "to",
          "type": "address"
        },
        {
          "internalType": "uint256",
          "name": "amount",
          "type": "uint256"
        }
      ],
      "name": "mintERC20",
      "outputs": [],
      "stateMutability": "nonpayable",
      "type": "function"
    },
    {
      "inputs": [],
      "name": "name",
      "outputs": [
        {
          "internalType": "string",
          "name": "",
          "type": "string"
        }
      ],
      "stateMutability": "view",
      "type": "function"
    },
    {
      "inputs": [
        {
          "internalType": "address",
          "name": "owner",
          "type": "address"
        }
      ],
      "name": "nonces",
      "outputs": [
        {
          "internalType": "uint256",
          "name": "",
          "type": "uint256"
        }
      ],
      "stateMutability": "view",
      "type": "function"
    },
    {
      "inputs": [],
      "name": "owner",
      "outputs": [
        {
          "internalType": "address",
          "name": "",
          "type": "address"
        }
      ],
      "stateMutability": "view",
      "type": "function"
    },
    {
      "inputs": [
        {
          "internalType": "address",
          "name": "owner",
          "type": "address"
        },
        {
          "internalType": "address",
          "name": "spender",
          "type": "address"
        },
        {
          "internalType": "uint256",
          "name": "value",
          "type": "uint256"
        },
        {
          "internalType": "uint256",
          "name": "deadline",
          "type": "uint256"
        },
        {
          "internalType": "uint8",
          "name": "v",
          "type": "uint8"
        },
        {
          "internalType": "bytes32",
          "name": "r",
          "type": "bytes32"
        },
        {
          "internalType": "bytes32",
          "name": "s",
          "type": "bytes32"
        }
      ],
      "name": "permit",
      "outputs": [],
      "stateMutability": "nonpayable",
      "type": "function"
    },
    {
      "inputs": [],
      "name": "renounceOwnership",
      "outputs": [],
      "stateMutability": "nonpayable",
      "type": "function"
    },
    {
      "inputs": [],
      "name": "symbol",
      "outputs": [
        {
          "internalType": "string",
          "name": "",
          "type": "string"
        }
      ],
      "stateMutability": "view",
      "type": "function"
    },
    {
      "inputs": [],
      "name": "totalSupply",
      "outputs": [
        {
          "internalType": "uint256",
          "name": "",
          "type": "uint256"
        }
      ],
      "stateMutability": "view",
      "type": "function"
    },
    {
      "inputs": [
        {
          "internalType": "address",
          "name": "to",
          "type": "address"
        },
        {
          "internalType": "uint256",
          "name": "value",
          "type": "uint256"
        }
      ],
      "name": "transfer",
      "outputs": [
        {
          "internalType": "bool",
          "name": "",
          "type": "bool"
        }
      ],
      "stateMutability": "nonpayable",
      "type": "function"
    },
    {
      "inputs": [
        {
          "internalType": "address",
          "name": "from",
          "type": "address"
        },
        {
          "internalType": "address",
          "name": "to",
          "type": "address"
        },
        {
          "internalType": "uint256",
          "name": "value",
          "type": "uint256"
        }
      ],
      "name": "transferFrom",
      "outputs": [
        {
          "internalType": "bool",
          "name": "",
          "type": "bool"
        }
      ],
      "stateMutability": "nonpayable",
      "type": "function"
    },
    {
      "inputs": [
        {
          "internalType": "address",
          "name": "newOwner",
          "type": "address"
        }
      ],
      "name": "transferOwnership",
      "outputs": [],
      "stateMutability": "nonpayable",
      "type": "function"
    }
  ],
  "bytecode": "0x6101606040523480156200001257600080fd5b506040516200332338038062003323833981810160405281019062000038919062000a37565b816040518060400160405280600681526020017f56546f6b656e0000000000000000000000000000000000000000000000000000815250806040518060400160405280600181526020017f31000000000000000000000000000000000000000000000000000000000000008152506040518060400160405280600681526020017f56546f6b656e00000000000000000000000000000000000000000000000000008152506040518060400160405280600381526020017f56544b0000000000000000000000000000000000000000000000000000000000815250816003908162000123919062000cee565b50806004908162000135919062000cee565b5050506200014e6005836200047660201b90919060201c565b61012081815250506200016c6006826200047660201b90919060201c565b6101408181525050818051906020012060e08181525050808051906020012061010081815250504660a08181525050620001ab620004ce60201b60201c565b608081815250503073ffffffffffffffffffffffffffffffffffffffff1660c08173ffffffffffffffffffffffffffffffffffffffff1681525050505050600073ffffffffffffffffffffffffffffffffffffffff168173ffffffffffffffffffffffffffffffffffffffff16036200025e5760006040517f1e4fbdf700000000000000000000000000000000000000000000000000000000815260040162000255919062000de6565b60405180910390fd5b6200026f816200052b60201b60201c565b506200028c676f4f919e6cb60ddd60c01b620005f160201b60201c565b620002a867a469aaa33d3d900260c01b620005f160201b60201c565b620002c467e689c2947b108dde60c01b620005f160201b60201c565b620002d7336064620005f460201b60201c565b620002f3670a9bdf789ecf59f060c01b620005f160201b60201c565b8060098190555062000316673cf9b584cddd8c5a60c01b620005f160201b60201c565b62000332670eaf9b41acb2b6a260c01b620005f160201b60201c565b6200034e673b37584470b7015460c01b620005f160201b60201c565b620186a0600954111562000399576040517f08c379a0000000000000000000000000000000000000000000000000000000008152600401620003909062000e8a565b60405180910390fd5b620003b567836c5e17dd5856d660c01b620005f160201b60201c565b620003d16727753b321dd74fd560c01b620005f160201b60201c565b620003ed67cad7fd6ef60a665360c01b620005f160201b60201c565b620004096727be7b3d768a0eff60c01b620005f160201b60201c565b6001600954101562000452576040517f08c379a0000000000000000000000000000000000000000000000000000000008152600401620004499062000f22565b60405180910390fd5b6200046e679d343ecb7ec6d9d160c01b620005f160201b60201c565b5050620011d5565b60006020835110156200049c5762000494836200065e60201b60201c565b9050620004c8565b82620004ae83620006cb60201b60201c565b6000019081620004bf919062000cee565b5060ff60001b90505b92915050565b60007f8b73c3c69bb8fe3d512ecc4cf759cc79239f7b179b0ffacaa9a75d522b39400f60e0516101005146306040516020016200051095949392919062000f70565b60405160208183030381529060405280519060200120905090565b6000600860009054906101000a900473ffffffffffffffffffffffffffffffffffffffff16905081600860006101000a81548173ffffffffffffffffffffffffffffffffffffffff021916908373ffffffffffffffffffffffffffffffffffffffff1602179055508173ffffffffffffffffffffffffffffffffffffffff168173ffffffffffffffffffffffffffffffffffffffff167f8be0079c531659141344cd1fd0a4f28419497f9722a3daafe3b4186f6b6457e060405160405180910390a35050565b50565b62000610672b5c91bf66d4c1e660c01b620005f160201b60201c565b6200062c6797799eacff167fed60c01b620005f160201b60201c565b62000648672122554885853cb760c01b620005f160201b60201c565b6200065a8282620006d560201b60201c565b5050565b600080829050601f81511115620006ae57826040517f305a27a9000000000000000000000000000000000000000000000000000000008152600401620006a591906200104b565b60405180910390fd5b805181620006bc90620010a1565b60001c1760001b915050919050565b6000819050919050565b600073ffffffffffffffffffffffffffffffffffffffff168273ffffffffffffffffffffffffffffffffffffffff16036200074a5760006040517fec442f0500000000000000000000000000000000000000000000000000000000815260040162000741919062000de6565b60405180910390fd5b6200075e600083836200076260201b60201c565b5050565b600073ffffffffffffffffffffffffffffffffffffffff168373ffffffffffffffffffffffffffffffffffffffff1603620007b8578060026000828254620007ab919062001140565b925050819055506200088e565b60008060008573ffffffffffffffffffffffffffffffffffffffff1673ffffffffffffffffffffffffffffffffffffffff1681526020019081526020016000205490508181101562000847578381836040517fe450d38c0000000000000000000000000000000000000000000000000000000081526004016200083e939291906200117b565b60405180910390fd5b8181036000808673ffffffffffffffffffffffffffffffffffffffff1673ffffffffffffffffffffffffffffffffffffffff16815260200190815260200160002081905550505b600073ffffffffffffffffffffffffffffffffffffffff168273ffffffffffffffffffffffffffffffffffffffff1603620008d9578060026000828254039250508190555062000926565b806000808473ffffffffffffffffffffffffffffffffffffffff1673ffffffffffffffffffffffffffffffffffffffff168152602001908152602001600020600082825401925050819055505b8173ffffffffffffffffffffffffffffffffffffffff168373ffffffffffffffffffffffffffffffffffffffff167fddf252ad1be2c89b69c2b068fc378daa952ba7f163c4a11628f55a4df523b3ef83604051620009859190620011b8565b60405180910390a3505050565b600080fd5b600073ffffffffffffffffffffffffffffffffffffffff82169050919050565b6000620009c48262000997565b9050919050565b620009d681620009b7565b8114620009e257600080fd5b50565b600081519050620009f681620009cb565b92915050565b6000819050919050565b62000a1181620009fc565b811462000a1d57600080fd5b50565b60008151905062000a318162000a06565b92915050565b6000806040838503121562000a515762000a5062000992565b5b600062000a6185828601620009e5565b925050602062000a748582860162000a20565b9150509250929050565b600081519050919050565b7f4e487b7100000000000000000000000000000000000000000000000000000000600052604160045260246000fd5b7f4e487b7100000000000000000000000000000000000000000000000000000000600052602260045260246000fd5b6000600282049050600182168062000b0057607f821691505b60208210810362000b165762000b1562000ab8565b5b50919050565b60008190508160005260206000209050919050565b60006020601f8301049050919050565b600082821b905092915050565b60006008830262000b807fffffffffffffffffffffffffffffffffffffffffffffffffffffffffffffffff8262000b41565b62000b8c868362000b41565b95508019841693508086168417925050509392505050565b6000819050919050565b600062000bcf62000bc962000bc384620009fc565b62000ba4565b620009fc565b9050919050565b6000819050919050565b62000beb8362000bae565b62000c0362000bfa8262000bd6565b84845462000b4e565b825550505050565b600090565b62000c1a62000c0b565b62000c2781848462000be0565b505050565b5b8181101562000c4f5762000c4360008262000c10565b60018101905062000c2d565b5050565b601f82111562000c9e5762000c688162000b1c565b62000c738462000b31565b8101602085101562000c83578190505b62000c9b62000c928562000b31565b83018262000c2c565b50505b505050565b600082821c905092915050565b600062000cc36000198460080262000ca3565b1980831691505092915050565b600062000cde838362000cb0565b9150826002028217905092915050565b62000cf98262000a7e565b67ffffffffffffffff81111562000d155762000d1462000a89565b5b62000d21825462000ae7565b62000d2e82828562000c53565b600060209050601f83116001811462000d66576000841562000d51578287015190505b62000d5d858262000cd0565b86555062000dcd565b601f19841662000d768662000b1c565b60005b8281101562000da05784890151825560018201915060208501945060208101905062000d79565b8683101562000dc0578489015162000dbc601f89168262000cb0565b8355505b6001600288020188555050505b505050505050565b62000de081620009b7565b82525050565b600060208201905062000dfd600083018462000dd5565b92915050565b600082825260208201905092915050565b7f4d617820746f6b656e20737570706c79206d757374206265206c65737320746860008201527f616e206f7220657175616c20746f2031302c3030300000000000000000000000602082015250565b600062000e7260358362000e03565b915062000e7f8262000e14565b604082019050919050565b6000602082019050818103600083015262000ea58162000e63565b9050919050565b7f4d617820746f6b656e20737570706c79206d757374206265206772656174657260008201527f207468616e203000000000000000000000000000000000000000000000000000602082015250565b600062000f0a60278362000e03565b915062000f178262000eac565b604082019050919050565b6000602082019050818103600083015262000f3d8162000efb565b9050919050565b6000819050919050565b62000f598162000f44565b82525050565b62000f6a81620009fc565b82525050565b600060a08201905062000f87600083018862000f4e565b62000f96602083018762000f4e565b62000fa5604083018662000f4e565b62000fb4606083018562000f5f565b62000fc3608083018462000dd5565b9695505050505050565b60005b8381101562000fed57808201518184015260208101905062000fd0565b60008484015250505050565b6000601f19601f8301169050919050565b6000620010178262000a7e565b62001023818562000e03565b93506200103581856020860162000fcd565b620010408162000ff9565b840191505092915050565b600060208201905081810360008301526200106781846200100a565b905092915050565b600081519050919050565b6000819050602082019050919050565b600062001098825162000f44565b80915050919050565b6000620010ae826200106f565b82620010ba846200107a565b9050620010c7816200108a565b925060208210156200110a57620011057fffffffffffffffffffffffffffffffffffffffffffffffffffffffffffffffff8360200360080262000b41565b831692505b5050919050565b7f4e487b7100000000000000000000000000000000000000000000000000000000600052601160045260246000fd5b60006200114d82620009fc565b91506200115a83620009fc565b925082820190508082111562001175576200117462001111565b5b92915050565b600060608201905062001192600083018662000dd5565b620011a1602083018562000f5f565b620011b0604083018462000f5f565b949350505050565b6000602082019050620011cf600083018462000f5f565b92915050565b60805160a05160c05160e0516101005161012051610140516120f3620012306000396000610eed01526000610eb201526000611402015260006113e101526000610b5901526000610baf01526000610bd801526120f36000f3fe608060405234801561001057600080fd5b506004361061012c5760003560e01c80637c4ca9cc116100ad578063a9059cbb11610071578063a9059cbb14610327578063d505accf14610357578063d5abeb0114610373578063dd62ed3e14610391578063f2fde38b146103c15761012c565b80637c4ca9cc1461027b5780637ecebe001461029757806384b0196e146102c75780638da5cb5b146102eb57806395d89b41146103095761012c565b80633644e515116100f45780633644e515146101eb57806342966c681461020957806370a0823114610225578063715018a61461025557806379cc67901461025f5761012c565b806306fdde0314610131578063095ea7b31461014f57806318160ddd1461017f57806323b872dd1461019d578063313ce567146101cd575b600080fd5b6101396103dd565b60405161014691906118ef565b60405180910390f35b610169600480360381019061016491906119aa565b61046f565b6040516101769190611a05565b60405180910390f35b610187610492565b6040516101949190611a2f565b60405180910390f35b6101b760048036038101906101b29190611a4a565b61049c565b6040516101c49190611a05565b60405180910390f35b6101d56104cb565b6040516101e29190611ab9565b60405180910390f35b6101f36104d4565b6040516102009190611aed565b60405180910390f35b610223600480360381019061021e9190611b08565b6104e3565b005b61023f600480360381019061023a9190611b35565b6104f7565b60405161024c9190611a2f565b60405180910390f35b61025d61053f565b005b610279600480360381019061027491906119aa565b610553565b005b610295600480360381019061029091906119aa565b610573565b005b6102b160048036038101906102ac9190611b35565b6105bd565b6040516102be9190611a2f565b60405180910390f35b6102cf6105cf565b6040516102e29796959493929190611c6a565b60405180910390f35b6102f3610679565b6040516103009190611cee565b60405180910390f35b6103116106a3565b60405161031e91906118ef565b60405180910390f35b610341600480360381019061033c91906119aa565b610735565b60405161034e9190611a05565b60405180910390f35b610371600480360381019061036c9190611d61565b610758565b005b61037b6108a0565b6040516103889190611a2f565b60405180910390f35b6103ab60048036038101906103a69190611e03565b6108a6565b6040516103b89190611a2f565b60405180910390f35b6103db60048036038101906103d69190611b35565b61092d565b005b6060600380546103ec90611e72565b80601f016020809104026020016040519081016040528092919081815260200182805461041890611e72565b80156104655780601f1061043a57610100808354040283529160200191610465565b820191906000526020600020905b81548152906001019060200180831161044857829003601f168201915b5050505050905090565b60008061047a6109b3565b90506104878185856109bb565b600191505092915050565b6000600254905090565b6000806104a76109b3565b90506104b48582856109cd565b6104bf858585610a61565b60019150509392505050565b60006012905090565b60006104de610b55565b905090565b6104f46104ee6109b3565b82610c0c565b50565b60008060008373ffffffffffffffffffffffffffffffffffffffff1673ffffffffffffffffffffffffffffffffffffffff168152602001908152602001600020549050919050565b610547610c8e565b6105516000610d15565b565b6105658261055f6109b3565b836109cd565b61056f8282610c0c565b5050565b610587672b5c91bf66d4c1e660c01b610ddb565b61059b6797799eacff167fed60c01b610ddb565b6105af672122554885853cb760c01b610ddb565b6105b98282610dde565b5050565b60006105c882610e60565b9050919050565b6000606080600080600060606105e3610ea9565b6105eb610ee4565b46306000801b600067ffffffffffffffff81111561060c5761060b611ea3565b5b60405190808252806020026020018201604052801561063a5781602001602082028036833780820191505090505b507f0f00000000000000000000000000000000000000000000000000000000000000959493929190965096509650965096509650965090919293949596565b6000600860009054906101000a900473ffffffffffffffffffffffffffffffffffffffff16905090565b6060600480546106b290611e72565b80601f01602080910402602001604051908101604052809291908181526020018280546106de90611e72565b801561072b5780601f106107005761010080835404028352916020019161072b565b820191906000526020600020905b81548152906001019060200180831161070e57829003601f168201915b5050505050905090565b6000806107406109b3565b905061074d818585610a61565b600191505092915050565b8342111561079d57836040517f627913020000000000000000000000000000000000000000000000000000000081526004016107949190611a2f565b60405180910390fd5b60007f6e71edae12b1b97f4d1f60370fef10105fa2faae0126114a169c64845d6126c98888886107cc8c610f1f565b896040516020016107e296959493929190611ed2565b604051602081830303815290604052805190602001209050600061080582610f76565b9050600061081582878787610f90565b90508973ffffffffffffffffffffffffffffffffffffffff168173ffffffffffffffffffffffffffffffffffffffff161461088957808a6040517f4b800e46000000000000000000000000000000000000000000000000000000008152600401610880929190611f33565b60405180910390fd5b6108948a8a8a6109bb565b50505050505050505050565b60095481565b6000600160008473ffffffffffffffffffffffffffffffffffffffff1673ffffffffffffffffffffffffffffffffffffffff16815260200190815260200160002060008373ffffffffffffffffffffffffffffffffffffffff1673ffffffffffffffffffffffffffffffffffffffff16815260200190815260200160002054905092915050565b610935610c8e565b600073ffffffffffffffffffffffffffffffffffffffff168173ffffffffffffffffffffffffffffffffffffffff16036109a75760006040517f1e4fbdf700000000000000000000000000000000000000000000000000000000815260040161099e9190611cee565b60405180910390fd5b6109b081610d15565b50565b600033905090565b6109c88383836001610fc0565b505050565b60006109d984846108a6565b90507fffffffffffffffffffffffffffffffffffffffffffffffffffffffffffffffff8114610a5b5781811015610a4b578281836040517ffb8f41b2000000000000000000000000000000000000000000000000000000008152600401610a4293929190611f5c565b60405180910390fd5b610a5a84848484036000610fc0565b5b50505050565b600073ffffffffffffffffffffffffffffffffffffffff168373ffffffffffffffffffffffffffffffffffffffff1603610ad35760006040517f96c6fd1e000000000000000000000000000000000000000000000000000000008152600401610aca9190611cee565b60405180910390fd5b600073ffffffffffffffffffffffffffffffffffffffff168273ffffffffffffffffffffffffffffffffffffffff1603610b455760006040517fec442f05000000000000000000000000000000000000000000000000000000008152600401610b3c9190611cee565b60405180910390fd5b610b50838383611197565b505050565b60007f000000000000000000000000000000000000000000000000000000000000000073ffffffffffffffffffffffffffffffffffffffff163073ffffffffffffffffffffffffffffffffffffffff16148015610bd157507f000000000000000000000000000000000000000000000000000000000000000046145b15610bfe577f00000000000000000000000000000000000000000000000000000000000000009050610c09565b610c066113bc565b90505b90565b600073ffffffffffffffffffffffffffffffffffffffff168273ffffffffffffffffffffffffffffffffffffffff1603610c7e5760006040517f96c6fd1e000000000000000000000000000000000000000000000000000000008152600401610c759190611cee565b60405180910390fd5b610c8a82600083611197565b5050565b610c966109b3565b73ffffffffffffffffffffffffffffffffffffffff16610cb4610679565b73ffffffffffffffffffffffffffffffffffffffff1614610d1357610cd76109b3565b6040517f118cdaa7000000000000000000000000000000000000000000000000000000008152600401610d0a9190611cee565b60405180910390fd5b565b6000600860009054906101000a900473ffffffffffffffffffffffffffffffffffffffff16905081600860006101000a81548173ffffffffffffffffffffffffffffffffffffffff021916908373ffffffffffffffffffffffffffffffffffffffff1602179055508173ffffffffffffffffffffffffffffffffffffffff168173ffffffffffffffffffffffffffffffffffffffff167f8be0079c531659141344cd1fd0a4f28419497f9722a3daafe3b4186f6b6457e060405160405180910390a35050565b50565b600073ffffffffffffffffffffffffffffffffffffffff168273ffffffffffffffffffffffffffffffffffffffff1603610e505760006040517fec442f05000000000000000000000000000000000000000000000000000000008152600401610e479190611cee565b60405180910390fd5b610e5c60008383611197565b5050565b6000600760008373ffffffffffffffffffffffffffffffffffffffff1673ffffffffffffffffffffffffffffffffffffffff168152602001908152602001600020549050919050565b6060610edf60057f000000000000000000000000000000000000000000000000000000000000000061145290919063ffffffff16565b905090565b6060610f1a60067f000000000000000000000000000000000000000000000000000000000000000061145290919063ffffffff16565b905090565b6000600760008373ffffffffffffffffffffffffffffffffffffffff1673ffffffffffffffffffffffffffffffffffffffff1681526020019081526020016000206000815480929190600101919050559050919050565b6000610f89610f83610b55565b83611502565b9050919050565b600080600080610fa288888888611543565b925092509250610fb28282611637565b829350505050949350505050565b600073ffffffffffffffffffffffffffffffffffffffff168473ffffffffffffffffffffffffffffffffffffffff16036110325760006040517fe602df050000000000000000000000000000000000000000000000000000000081526004016110299190611cee565b60405180910390fd5b600073ffffffffffffffffffffffffffffffffffffffff168373ffffffffffffffffffffffffffffffffffffffff16036110a45760006040517f94280d6200000000000000000000000000000000000000000000000000000000815260040161109b9190611cee565b60405180910390fd5b81600160008673ffffffffffffffffffffffffffffffffffffffff1673ffffffffffffffffffffffffffffffffffffffff16815260200190815260200160002060008573ffffffffffffffffffffffffffffffffffffffff1673ffffffffffffffffffffffffffffffffffffffff168152602001908152602001600020819055508015611191578273ffffffffffffffffffffffffffffffffffffffff168473ffffffffffffffffffffffffffffffffffffffff167f8c5be1e5ebec7d5bd14f71427d1e84f3dd0314c0f7b2291e5b200ac8c7c3b925846040516111889190611a2f565b60405180910390a35b50505050565b600073ffffffffffffffffffffffffffffffffffffffff168373ffffffffffffffffffffffffffffffffffffffff16036111e95780600260008282546111dd9190611fc2565b925050819055506112bc565b60008060008573ffffffffffffffffffffffffffffffffffffffff1673ffffffffffffffffffffffffffffffffffffffff16815260200190815260200160002054905081811015611275578381836040517fe450d38c00000000000000000000000000000000000000000000000000000000815260040161126c93929190611f5c565b60405180910390fd5b8181036000808673ffffffffffffffffffffffffffffffffffffffff1673ffffffffffffffffffffffffffffffffffffffff16815260200190815260200160002081905550505b600073ffffffffffffffffffffffffffffffffffffffff168273ffffffffffffffffffffffffffffffffffffffff16036113055780600260008282540392505081905550611352565b806000808473ffffffffffffffffffffffffffffffffffffffff1673ffffffffffffffffffffffffffffffffffffffff168152602001908152602001600020600082825401925050819055505b8173ffffffffffffffffffffffffffffffffffffffff168373ffffffffffffffffffffffffffffffffffffffff167fddf252ad1be2c89b69c2b068fc378daa952ba7f163c4a11628f55a4df523b3ef836040516113af9190611a2f565b60405180910390a3505050565b60007f8b73c3c69bb8fe3d512ecc4cf759cc79239f7b179b0ffacaa9a75d522b39400f7f00000000000000000000000000000000000000000000000000000000000000007f00000000000000000000000000000000000000000000000000000000000000004630604051602001611437959493929190611ff6565b60405160208183030381529060405280519060200120905090565b606060ff60001b831461146f576114688361179b565b90506114fc565b81805461147b90611e72565b80601f01602080910402602001604051908101604052809291908181526020018280546114a790611e72565b80156114f45780601f106114c9576101008083540402835291602001916114f4565b820191906000526020600020905b8154815290600101906020018083116114d757829003601f168201915b505050505090505b92915050565b60006040517f190100000000000000000000000000000000000000000000000000000000000081528360028201528260228201526042812091505092915050565b60008060007f7fffffffffffffffffffffffffffffff5d576e7357a4501ddfe92f46681b20a08460001c111561158357600060038592509250925061162d565b6000600188888888604051600081526020016040526040516115a89493929190612049565b6020604051602081039080840390855afa1580156115ca573d6000803e3d6000fd5b505050602060405103519050600073ffffffffffffffffffffffffffffffffffffffff168173ffffffffffffffffffffffffffffffffffffffff160361161e57600060016000801b9350935093505061162d565b8060008060001b935093509350505b9450945094915050565b6000600381111561164b5761164a61208e565b5b82600381111561165e5761165d61208e565b5b031561179757600160038111156116785761167761208e565b5b82600381111561168b5761168a61208e565b5b036116c2576040517ff645eedf00000000000000000000000000000000000000000000000000000000815260040160405180910390fd5b600260038111156116d6576116d561208e565b5b8260038111156116e9576116e861208e565b5b0361172e578060001c6040517ffce698f70000000000000000000000000000000000000000000000000000000081526004016117259190611a2f565b60405180910390fd5b6003808111156117415761174061208e565b5b8260038111156117545761175361208e565b5b0361179657806040517fd78bce0c00000000000000000000000000000000000000000000000000000000815260040161178d9190611aed565b60405180910390fd5b5b5050565b606060006117a88361180f565b90506000602067ffffffffffffffff8111156117c7576117c6611ea3565b5b6040519080825280601f01601f1916602001820160405280156117f95781602001600182028036833780820191505090505b5090508181528360208201528092505050919050565b60008060ff8360001c169050601f811115611856576040517fb3512b0c00000000000000000000000000000000000000000000000000000000815260040160405180910390fd5b80915050919050565b600081519050919050565b600082825260208201905092915050565b60005b8381101561189957808201518184015260208101905061187e565b60008484015250505050565b6000601f19601f8301169050919050565b60006118c18261185f565b6118cb818561186a565b93506118db81856020860161187b565b6118e4816118a5565b840191505092915050565b6000602082019050818103600083015261190981846118b6565b905092915050565b600080fd5b600073ffffffffffffffffffffffffffffffffffffffff82169050919050565b600061194182611916565b9050919050565b61195181611936565b811461195c57600080fd5b50565b60008135905061196e81611948565b92915050565b6000819050919050565b61198781611974565b811461199257600080fd5b50565b6000813590506119a48161197e565b92915050565b600080604083850312156119c1576119c0611911565b5b60006119cf8582860161195f565b92505060206119e085828601611995565b9150509250929050565b60008115159050919050565b6119ff816119ea565b82525050565b6000602082019050611a1a60008301846119f6565b92915050565b611a2981611974565b82525050565b6000602082019050611a446000830184611a20565b92915050565b600080600060608486031215611a6357611a62611911565b5b6000611a718682870161195f565b9350506020611a828682870161195f565b9250506040611a9386828701611995565b9150509250925092565b600060ff82169050919050565b611ab381611a9d565b82525050565b6000602082019050611ace6000830184611aaa565b92915050565b6000819050919050565b611ae781611ad4565b82525050565b6000602082019050611b026000830184611ade565b92915050565b600060208284031215611b1e57611b1d611911565b5b6000611b2c84828501611995565b91505092915050565b600060208284031215611b4b57611b4a611911565b5b6000611b598482850161195f565b91505092915050565b60007fff0000000000000000000000000000000000000000000000000000000000000082169050919050565b611b9781611b62565b82525050565b611ba681611936565b82525050565b600081519050919050565b600082825260208201905092915050565b6000819050602082019050919050565b611be181611974565b82525050565b6000611bf38383611bd8565b60208301905092915050565b6000602082019050919050565b6000611c1782611bac565b611c218185611bb7565b9350611c2c83611bc8565b8060005b83811015611c5d578151611c448882611be7565b9750611c4f83611bff565b925050600181019050611c30565b5085935050505092915050565b600060e082019050611c7f600083018a611b8e565b8181036020830152611c9181896118b6565b90508181036040830152611ca581886118b6565b9050611cb46060830187611a20565b611cc16080830186611b9d565b611cce60a0830185611ade565b81810360c0830152611ce08184611c0c565b905098975050505050505050565b6000602082019050611d036000830184611b9d565b92915050565b611d1281611a9d565b8114611d1d57600080fd5b50565b600081359050611d2f81611d09565b92915050565b611d3e81611ad4565b8114611d4957600080fd5b50565b600081359050611d5b81611d35565b92915050565b600080600080600080600060e0888a031215611d8057611d7f611911565b5b6000611d8e8a828b0161195f565b9750506020611d9f8a828b0161195f565b9650506040611db08a828b01611995565b9550506060611dc18a828b01611995565b9450506080611dd28a828b01611d20565b93505060a0611de38a828b01611d4c565b92505060c0611df48a828b01611d4c565b91505092959891949750929550565b60008060408385031215611e1a57611e19611911565b5b6000611e288582860161195f565b9250506020611e398582860161195f565b9150509250929050565b7f4e487b7100000000000000000000000000000000000000000000000000000000600052602260045260246000fd5b60006002820490506001821680611e8a57607f821691505b602082108103611e9d57611e9c611e43565b5b50919050565b7f4e487b7100000000000000000000000000000000000000000000000000000000600052604160045260246000fd5b600060c082019050611ee76000830189611ade565b611ef46020830188611b9d565b611f016040830187611b9d565b611f0e6060830186611a20565b611f1b6080830185611a20565b611f2860a0830184611a20565b979650505050505050565b6000604082019050611f486000830185611b9d565b611f556020830184611b9d565b9392505050565b6000606082019050611f716000830186611b9d565b611f7e6020830185611a20565b611f8b6040830184611a20565b949350505050565b7f4e487b7100000000000000000000000000000000000000000000000000000000600052601160045260246000fd5b6000611fcd82611974565b9150611fd883611974565b9250828201905080821115611ff057611fef611f93565b5b92915050565b600060a08201905061200b6000830188611ade565b6120186020830187611ade565b6120256040830186611ade565b6120326060830185611a20565b61203f6080830184611b9d565b9695505050505050565b600060808201905061205e6000830187611ade565b61206b6020830186611aaa565b6120786040830185611ade565b6120856060830184611ade565b95945050505050565b7f4e487b7100000000000000000000000000000000000000000000000000000000600052602160045260246000fdfea2646970667358221220f25faf24053fd2ab0222952c7298588e878029c3944f3d9ae195078ea610fef864736f6c63430008140033",
  "linkReferences": {},
  "deployedLinkReferences": {}
}